:020000040800F2
:1000000000000220F5840008550E00085B0E000871
:10001000610E0008670E00086D0E00080000000069
:10002000000000000000000000000000F161000876
:10003000730E00080000000041640008355D0008F0
:100040004585000845850008458500084585000868
:100050004585000845850008458500084585000858
:100060004585000845850008458500084585000848
:100070004585000845850008458500084585000838
:100080004585000845850008458500084585000828
:100090004585000845850008458500084585000818
:1000A0004585000845850008458500084585000808
:1000B00045850008458500084585000845850008F8
:1000C00045850008458500084585000845850008E8
:1000D00045850008458500084585000845850008D8
:1000E000458500084585000800000000458500089A
:1000F00045850008458500084585000845850008B8
:100100004585000845850008810E000845850008E2
:100110004585000845850008458500084585000897
:100120004585000845850008458500084585000887
:100130004585000845850008458500084585000877
:1001400000000000000000000000000000000000AF
:100150004585000845850008458500084585000857
:100160004585000845850008458500084585000847
:100170004585000845850008458500080000000009
:100180004585000845850008458500084585000827
:100190004585000845850008458500084585000817
:1001A00045850008458500084585000800000000D9
:1001B00045850008458500084585000845850008F7
:1001C000458500084585000800000000000000008B
:1001D000000000000000000045850008000000004D
:1001E000000000000000000000000000000000000F
:1001F000000000000000000045850008458500085B
:100200004585000845850008000000004585000878
:100210004585000845850008458500084585000896
:10022000458500080000000045850008000000002A
:100230004585000845850008000000004585000848
:100240004585000845850008458500084585000866
:100250004585000845850008458500084585000856
:100260004585000845850008458500084585000846
:100270004585000845850008458500080000000008
:100280004585000845850008458500084585000826
:1002900000000000458500084585000800000000BA
:1002A00000000000458500084585000845850008D8
:1002B00045850008458500084585000845850008F6
:0C02C000458500084585000845850008BC
:1002D00010B5054C237833B9044B13B10448AFF380
:1002E00000800123237010BDD40000200000000016
:1002F000BC85000808B5034B1BB103490348AFF3A5
:10030000008008BD00000000D8000020BC85000867
:1003100053B94AB9002908BF00281CBF4FF0FF316C
:100320004FF0FF3000F074B9ADF1080C6DE904CE68
:1003300000F006F8DDF804E0DDE9022304B07047C0
:100340002DE9F047089D04468E46002B4DD18A4288
:10035000944669D9B2FA82F252B101FA02F3C2F1BB
:10036000200120FA01F10CFA02FC41EA030E94404C
:100370004FEA1C48210CBEFBF8F61FFA8CF708FB6D
:1003800016E341EA034306FB07F199420AD91CEB45
:10039000030306F1FF3080F01F81994240F21C8177
:1003A000023E63445B1AA4B2B3FBF8F008FB1033BF
:1003B00044EA034400FB07F7A7420AD91CEB0404F4
:1003C00000F1FF3380F00A81A74240F207816444C4
:1003D000023840EA0640E41B00261DB1D440002349
:1003E000C5E900433146BDE8F0878B4209D9002DAD
:1003F00000F0EF800026C5E9000130463146BDE837
:10040000F087B3FA83F6002E4AD18B4202D38242A0
:1004100000F2F980841A61EB030301209E46002D4F
:10042000E0D0C5E9004EDDE702B9FFDEB2FA82F2A4
:10043000002A40F09280A1EB0C014FEA1C471FFA02
:100440008CFE0126200CB1FBF7F307FB131140EAE9
:1004500001410EFB03F0884208D91CEB010103F1B6
:10046000FF3802D2884200F2CB804346091AA4B278
:10047000B1FBF7F007FB101144EA01440EFB00FE4C
:10048000A64508D91CEB040400F1FF3102D2A645B1
:1004900000F2BB800846A4EB0E0440EA03409CE750
:1004A000C6F12007B34022FA07FC4CEA030C20FAFD
:1004B00007F401FA06F31C43F9404FEA1C4900FA1D
:1004C00006F3B1FBF9F8200C1FFA8CFE09FB18119A
:1004D00040EA014108FB0EF0884202FA06F20BD90D
:1004E0001CEB010108F1FF3A80F08880884240F25D
:1004F0008580A8F102086144091AA4B2B1FBF9F0A1
:1005000009FB101144EA014100FB0EFE8E4508D99B
:100510001CEB010100F1FF346CD28E456AD9023820
:10052000614440EA0840A0FB0294A1EB0E01A14205
:10053000C846A64656D353D05DB1B3EB080261EB73
:100540000E0101FA07F722FA06F3F1401F43C5E94D
:10055000007100263146BDE8F087C2F12003D84083
:100560000CFA02FC21FA03F3914001434FEA1C47C5
:100570001FFA8CFEB3FBF7F007FB10360B0C43EAB7
:10058000064300FB0EF69E4204FA02F408D91CEB67
:10059000030300F1FF382FD29E422DD90238634465
:1005A0009B1B89B2B3FBF7F607FB163341EA034105
:1005B00006FB0EF38B4208D91CEB010106F1FF3854
:1005C00016D28B4214D9023E6144C91A46EA00464B
:1005D00038E72E46284605E70646E3E61846F8E6DD
:1005E0004B45A9D2B9EB020864EB0C0E0138A3E726
:1005F0004646EAE7204694E74046D1E7D0467BE707
:10060000023B614432E7304609E76444023842E77E
:10061000704700BF80B500AF00F0B4FC00F030F8C8
:1006200000F03EF900F09CF800F0E6F800F030F938
:1006300005F09AFB0D4A00210D4805F0DFFB03464B
:100640000C4A136005F0B4FB4FF480410A4801F0F6
:10065000F2FB4FF47A7000F0F1FC0221074801F040
:10066000EAFB4FF47A7000F0E9FCEDE7F88500084A
:10067000990A00086802002000040258001002587D
:1006800080B59CB000AF07F124034C22002118462E
:1006900007F08CFF3B1D20220021184607F086FF43
:1006A000022001F0E3FB00233B602C4B9B692B4AAB
:1006B00023F440439361294B9B6903F440433B601F
:1006C0003B6800BF254B9B6903F40053B3F5005F03
:1006D000F8D121237B624FF4A023BB620123FB638B
:1006E0000223BB640223FB6404233B6540F2131323
:1006F0007B650123BB650423FB6502233B66042362
:100700007B660023BB660023FB6607F124031846C3
:1007100001F0E6FB0346002B01D000F0D7F93F23A0
:100720007B600323BB600023FB6008233B61402305
:100730007B614023BB614FF48063FB6140233B62DC
:100740003B1D0321184601F079FF0346002B01D021
:1007500000F0BCF900BF7037BD4680BD00480258AC
:1007600080B500AF1E4B1F4A1A601F4B00221A7043
:100770001D4B80225A701C4BE1229A701A4B0022AA
:10078000DA70194B00221A71174B00225A71144B60
:10079000154A5A60124B01221A72114B134ADA6041
:1007A0000F4B134A1A610E4B40F2F4525A610C4837
:1007B00000F05CFD0346002B01D000F087F93822E1
:1007C00000210C4807F0F2FE0A4B21221A60094B67
:1007D0004FF440325A61074B00221A6100BF80BDBE
:1007E00028010020008002406C02002074000020DC
:1007F00014000020F000002080B500AF224B234AF7
:100800001A60214B4FF4E1325A601F4B00229A606C
:100810001D4B0022DA601C4B00221A611A4B0C227D
:100820005A61194B00229A61174B0022DA61164B6C
:1008300000221A62144B00225A62134B00229A6261
:10084000114804F0D9F80346002B01D000F03EF91E
:1008500000210D4805F07AF90346002B01D000F085
:1008600035F90021084805F0AFF90346002B01D007
:1008700000F02CF9044805F030F90346002B01D0B4
:1008800000F024F900BF80BDD801002000480040DE
:1008900080B400AF00BFBD465DF8047B7047000028
:1008A00080B58CB000AF07F11C0300221A605A60BB
:1008B0009A60DA601A61714BD3F8E0306F4A43F006
:1008C0000403C2F8E0306D4BD3F8E03003F00403CA
:1008D000BB61BB69694BD3F8E030684A43F08003E1
:1008E000C2F8E030654BD3F8E03003F080037B6161
:1008F0007B69624BD3F8E030604A43F00103C2F8F1
:10090000E0305E4BD3F8E03003F001033B613B691C
:100910005A4BD3F8E030594A43F00203C2F8E030B2
:10092000564BD3F8E03003F00203FB60FB68534BF7
:10093000D3F8E030514A43F00803C2F8E0304F4B9F
:10094000D3F8E03003F00803BB60BB684B4BD3F82F
:10095000E0304A4A43F04003C2F8E030474BD3F856
:10096000E03003F040037B607B68444BD3F8E03019
:10097000424A43F01003C2F8E030404BD3F8E03075
:1009800003F010033B603B68002244F201013C4845
:1009900001F038FA00224FF480613A4801F032FA4F
:1009A00000220221384801F02DFA4FF40053FB6178
:1009B00000233B6200237B6207F11C031946334886
:1009C00001F078F844F20103FB6101233B6200234C
:1009D0007B620023BB6207F11C031946284801F023
:1009E00069F84FF48063FB6101233B6200237B6263
:1009F0000023BB6207F11C031946224801F05AF894
:100A00008023FB614FF488133B6200237B6207F174
:100A10001C0319461E4801F04DF84FF40073FB61AA
:100A200000233B6200237B6207F11C03194619482F
:100A300001F040F84FF48063FB6102233B62002326
:100A40007B620023BB620A23FB6207F11C03194689
:100A5000104801F02FF80223FB6101233B620023C1
:100A60007B620023BB6207F11C031946064801F0B4
:100A700021F800BF3037BD4680BD00BF004402589A
:100A800000040258000C02580010025800080258D6
:100A9000001802580000025880B582B000AF78609C
:100AA000012005F03DFAFBE780B582B000AF786029
:100AB0007B681B68044A934201D100F09FFA00BF93
:100AC0000837BD4680BD00BF000C004080B400AFB9
:100AD00072B600BFFEE7000080B582B000AF0C4BDD
:100AE000D3F8F4300A4A43F00203C2F8F430084B5A
:100AF000D3F8F43003F002037B607B6800220F21FF
:100B00006FF0010000F08AFB00BF0837BD4680BDD2
:100B10000044025880B58EB000AF786007F124031E
:100B200000221A605A609A60DA601A617B681B685A
:100B3000594A934240F0AB80584BD3F8D830574ACB
:100B400043F40043C2F8D830544BD3F8D83003F400
:100B500000433B623B6A514BD3F8D8304F4A43F4D1
:100B60008033C2F8D8304D4BD3F8D83003F48033FB
:100B7000FB61FB69494BD3F8D830484A43F4003352
:100B8000C2F8D830454BD3F8D83003F40033BB61FA
:100B9000BB69424BD3F8E030404A43F00403C2F84B
:100BA000E0303E4BD3F8E03003F004037B617B6917
:100BB0003A4BD3F8E030394A43F00103C2F8E03051
:100BC000364BD3F8E03003F001033B613B69334B14
:100BD000D3F8E030314A43F00203C2F8E0302F4B43
:100BE000D3F8E03003F00203FB60FB682B4BD3F833
:100BF000E0302A4A43F04003C2F8E030274BD3F8F4
:100C0000E03003F04003BB60BB6832237B62022309
:100C1000BB620023FB6200233B630B237B6307F172
:100C2000240319461E4800F045FF86237B620223F9
:100C3000BB620023FB6200233B630B237B6307F152
:100C400024031946174800F035FF4FF400537B6228
:100C50000223BB620023FB6200233B630B237B6305
:100C600007F124031946104800F024FF4FF42053E5
:100C70007B620223BB620023FB6200233B630B23E6
:100C80007B6307F124031946084800F013FF00BFF7
:100C90003837BD4680BD00BF008002400044025886
:100CA00000080258000002580004025800180258B8
:100CB00080B5B6B000AF786007F1C40300221A60B7
:100CC0005A609A60DA601A6107F11003B4220021B9
:100CD000184607F06BFC7B681B68254A934242D19B
:100CE00002233B610023C7F8803007F11003184648
:100CF00002F072F80346002B01D0FFF7E7FE1D4B10
:100D0000D3F8E8301B4A43F48023C2F8E830194B8B
:100D1000D3F8E83003F48023FB60FB68154BD3F86D
:100D2000E030144A43F00803C2F8E030114BD3F826
:100D3000E03003F00803BB60BB684FF44073C7F8B2
:100D4000C4300223C7F8C8300023C7F8CC300023D2
:100D5000C7F8D0300723C7F8D43007F1C4031946C9
:100D6000054800F0A7FE00BFD837BD4680BD00BFD4
:100D70000048004000440258000C025880B590B072
:100D800000AF78607B680F2B27D80022796832206B
:100D900000F044FA322000F05BFA294A7B681360C5
:100DA000284BD3F8E830274A43F00803C2F8E8306C
:100DB000244BD3F8E83003F00803FB60FB6807F12D
:100DC000100207F114031146184601F0C3FFBB6A75
:100DD000BB63BB6B002B06D101E001232BE001F0CC
:100DE0008DFFF86304E001F089FF03465B00FB63BD
:100DF000FB6B154AA2FB03239B0C013B7B63134B4C
:100E0000134A1A60114B40F2E732DA600F4A7B6BEB
:100E100053600E4B00221A610C4B00229A600B4863
:100E200003F0F6FA0346002B04D1084803F052FB06
:100E3000034600E0012318464037BD4680BD00BF91
:100E4000080000200044025883DE1B437402002087
:100E5000000C004080B400AFFEE780B400AFFEE7B6
:100E600080B400AFFEE780B400AFFEE780B400AF0F
:100E7000FEE780B400AF00BFBD465DF8047B70475D
:100E800080B500AF024803F0ABFB00BF80BD00BFE0
:100E90007402002080B400AF324BD3F88830314A5E
:100EA00043F47003C2F888302F4B1B6803F00F0324
:100EB000062B07D82C4B1B6823F00F032A4A43F05C
:100EC00007031360294B1B68284A43F00103136092
:100ED000264B00221A61254B1A682449244B1340E3
:100EE0000B60214B1B6803F00803002B07D01E4B3F
:100EF0001B6823F00F031C4A43F0070313601B4BCE
:100F000000229A61194B0022DA61184B00221A6202
:100F1000164B184A9A62154B174ADA62134B174A56
:100F20001A63124B00225A63104B144A9A630F4BF8
:100F30000022DA630D4B114A1A640C4B00225A64EA
:100F40000A4B1B68094A23F480231360074B0022D5
:100F50001A660B4B43F2D2021A6000BFBD465DF821
:100F6000047B704700ED00E000200052004402586E
:100F70007FEDF6EA000202020000FF01800201019B
:100F80000040005280B582B000AF032000F03BF972
:100F900001F00AFD0246154B9B691B0A03F00F0383
:100FA0001349CB5C03F01F0322FA03F37B600F4B62
:100FB0009B6903F00F030E4AD35C03F01F037A68AA
:100FC00022FA03F30B4A13600B4A7B6813600F206D
:100FD000FFF7D4FE0346002B01D0012302E0FFF708
:100FE0007BFD002318460837BD4680BD00440258EB
:100FF0001C860008040000200000002080B400AF20
:10100000064B1B781A46064B1B681344044A1360B0
:1010100000BFBD465DF8047B704700BF0C00002098
:10102000C002002080B400AF034B1B681846BD46C9
:101030005DF8047B704700BFC002002080B584B01B
:1010400000AF7860FFF7EEFFB8607B68FB60FB687D
:10105000B3F1FF3F05D00A4B1B781A46FB681344D7
:10106000FB6000BFFFF7DEFF0246BB68D31AFA68D9
:101070009A42F7D800BF00BF1037BD4680BD00BF01
:101080000C00002080B483B000AF7860064B5B6832
:1010900023F4600204497B6813434B6000BF0C37A4
:1010A000BD465DF8047B70470004005880B485B0ED
:1010B00000AF78607B6803F00703FB600B4BDB68D5
:1010C000BB60BA684FF6FF031340BB60FB681A02AF
:1010D000BB681A43064B1343BB60044ABB68D3602A
:1010E00000BF1437BD465DF8047B704700ED00E09B
:1010F0000000FA0580B400AF044BDB681B0A03F064
:1011000007031846BD465DF8047B704700ED00E01C
:1011100080B483B000AF0346FB80B7F90630002BE4
:101120000BDBFB8803F01F020749B7F906305B09A8
:10113000012000FA02F241F8232000BF0C37BD461F
:101140005DF8047B704700BF00E100E080B483B02D
:1011500000AF03463960FB80B7F90630002B0ADB8D
:101160003B68DAB20C49B7F906301201D2B20B442F
:1011700083F800230AE03B68DAB20849FB8803F0F1
:101180000F03043B1201D2B20B441A7600BF0C3796
:10119000BD465DF8047B704700E100E000ED00E033
:1011A00080B489B000AFF860B9607A60FB6803F082
:1011B0000703FB61FB69C3F10703042B28BF04236A
:1011C000BB61FB690433062B02D9FB69033B00E0DA
:1011D00000237B614FF0FF32BB6902FA03F3DA436D
:1011E000BB681A407B699A404FF0FF317B6901FA76
:1011F00003F3D9437B680B40134318462437BD469D
:101200005DF8047B704780B582B000AF7860786885
:10121000FFF74CFF00BF0837BD4680BD80B586B0E4
:1012200000AF0346B9607A60FB81FFF763FF786126
:101230007A68B9687869FFF7B3FF0246B7F90E30EC
:1012400011461846FFF782FF00BF1837BD4680BD24
:1012500080B582B000AF0346FB80B7F90630184670
:10126000FFF756FF00BF0837BD4680BD80B584B08C
:1012700000AF78607B68002B01D10123CFE07B6851
:10128000D3F88430002B06D17B682322C3F8842056
:101290007868FFF73FFC644BD3F8F430624A43F0C0
:1012A0000203C2F8F430604BD3F8F43003F00203C9
:1012B000BB60BB687B681B7A002B03D10020FFF763
:1012C000E1FE03E04FF40000FFF7DCFE574B5B68E4
:1012D0007B681B6803F580531B687A68126843F0CB
:1012E000010302F580521360FFF79CFEF86011E0E5
:1012F000FFF798FE0246FB68D31AB3F5FA7F09D9C7
:101300007B680422C3F888207B68E022C3F884202D
:10131000012384E07B681B6803F580531B6803F09E
:101320000103002BE4D1786800F086F801F0B6FCE8
:1013300003463F4AA2FB03239A0C7B681B68013AD1
:10134000C3F8DC20786800F071FA7B681B6803F54D
:101350008053D3F8003123F4E0137A68126843F421
:10136000002302F58052C2F800317B685B6903F00C
:101370000303002B09D07B680122C3F888207B6817
:10138000E022C3F88420012349E07B681B6803F551
:101390008053D3F80821274B13407A6852695100D3
:1013A0007A6812680B4302F58052C2F808317868F7
:1013B00000F0D9FA786800F01FFB7B685B680533A2
:1013C0001B781A027B685B6804331B7819467B68BC
:1013D0001B680A43C3F800237B685B6803331B78F0
:1013E0001A067B685B6802331B781B041A437B6810
:1013F0005B6801331B781B021A437B685B681B78B0
:1014000019467B681B680A43C3F804237B680022E3
:10141000C3F888207B681022C3F884200023184674
:101420001037BD4680BD00BF00440258000400587C
:1014300083DE1B430180FFFF80B584B000AF78607E
:101440007B681B68D3F80032FB60FB6823F4706391
:10145000FB6001F023FCB860BB681E4A934208D9C8
:10146000BB681D4A934204D8FB6843F40073FB60D9
:1014700027E0BB68184A934208D9BB68174A9342D1
:1014800004D2FB6843F44073FB601AE0BB68134A64
:10149000934203D3BB68124A934211D9BB68104AE6
:1014A000934208D9BB680F4A934204D8FB6843F4BF
:1014B0008073FB6005E0FB6843F48063FB6000E041
:1014C00000BF7B681B68FA68C3F8002200BF1037B2
:1014D000BD4680BDFF2C3101BF0E1602008793036D
:1014E000FFE0F5057FD1F00880B485B000AF7860EB
:1014F00039603B689A683B681B681A433B681B79F4
:10150000DB061A433B681B7BDB051A433B685B7BAE
:101510009B051A433B689B7B5B051A433B68DB7B5F
:101520001B0513433A68127C002A02D14FF40022B3
:1015300000E0002213433A68527C002A02D14FF4A3
:10154000003200E000221A433B689B7C1B041A43D4
:101550003B685B691A433B689B691A433B681B7F86
:101560001B031A433B685B7FDB0213433A68927F9D
:10157000002A02D14FF4806200E000221A433B6847
:10158000DB7F5B0213433A6892F82020002A02D1E5
:101590004FF4807200E000221A433B685B6A1A43F2
:1015A0003B6893F828301B011A433B68DB6A1343FE
:1015B000FB607B681B681A68564B13407A68126898
:1015C000F9680B4313603B68DB6B5A063B6893F882
:1015D00038301B061A433B6893F830309B041A439B
:1015E0003B6893F831305B0413433A6892F8322039
:1015F000002A02D14FF4803200E000221A433B68F7
:101600005B6B1343FB607B681B685A68424B13405B
:101610007A681268F9680B4353603B6893F840306E
:101620001A023B685B6C1343FB607B681B68DA68DB
:101630003A4B13407A681268F9680B43D3603B68F1
:1016400093F854305A003B681B6D13433A6892F884
:101650004C20002A01D1802200E000221A433B687E
:101660009B6C1B041343FB607B681B681A6F4FF66F
:101670000D7313407A681268F9680B4313673B686F
:1016800093F856301A463B6893F855305B00134385
:10169000FB607B681B68D3F8903023F003017B6804
:1016A0001B68FA680A43C3F890207B681B68D3F86C
:1016B000003D23F072013B689A6D7B681B680A430A
:1016C000C3F8002D3B68DB6D3A6892F86020002A71
:1016D00001D1402200E000221A433B6893F86130B8
:1016E0001B011A433B6893F86230DB001343FB6035
:1016F0007B681B68D3F8303D23F07B017B681B6857
:10170000FA680A43C3F8302D00BF1437BD465DF8B0
:10171000047B7047838004000080F8C0F0FEFFFF68
:1017200080B485B000AF786039607B681B6803F5D2
:1017300080531A68384B13403A6811687A68126807
:101740000B4302F5805213603B681B791A033B6818
:101750009B681A433B681B7BDB031343FB607B687E
:101760001B6803F580535A682C4B13407A68126843
:10177000F9680B4302F5805253603B685B7B1A04A7
:101780003B681B6A1343FB607B681B6803F580534F
:10179000D3F80021224B13407A681268F9680B4392
:1017A00002F58052C2F800313B681A693B681B7D24
:1017B0001B011A433B685B7F1B031343FB607B6881
:1017C0001B6803F58053D3F80421164B13407A6845
:1017D0001268F9680B4302F58052C2F804313B6885
:1017E0001B7FDA073B689B691343FB607B681B68C0
:1017F00003F58053D3F808210B4B13407A68126825
:10180000F9680B4302F58052C2F8083100BF143763
:10181000BD465DF8047B7047FD87FFFFFE2FFFFF8D
:1018200000C0FEFFEFEFC0FFFFFFC07F80B5A4B098
:1018300000AF7860012387F83B3000233B6500232D
:1018400087F84930002387F84B30012387F8303080
:10185000012387F85E30012387F83A30002387F8A8
:101860005430012387F88C304FF400537B640023FD
:1018700087F864300023BB66002387F88D3000238F
:1018800087F88E304FF4C3633B66002387F8383007
:1018900000237B63012387F83D30002387F83E3027
:1018A000002387F848300023FB6700237B67002371
:1018B000BB65002387F86C30002387F88230012352
:1018C00087F84A302023C7F88830012387F84C3046
:1018D000002387F85D304FF04053FB624FF48043A4
:1018E0003B64002387F839300223C7F88430002393
:1018F00087F88030002387F88130002387F85C3038
:10190000012387F83C3000233B67012387F87830B8
:1019100007F12C0319467868FFF7E6FD01233B73B6
:1019200001233B610023BB60002387F824300023A0
:101930007B7500233B754FF400133B6200233B771C
:101940004FF40013BB61002387F825304FF4067372
:10195000BB6207F1080319467868FFF7E1FE00BF94
:101960009037BD4680BD80B485B000AF786000235D
:10197000FB601DE07B68D968FA6813465B0013447E
:10198000DB000B44BB60BB6800221A60BB6800220E
:101990005A60BB6800229A60BB680022DA60B968AE
:1019A0007B68FA68063243F82210FB680133FB605B
:1019B000FB68032BDED97B6800229A627B681B6878
:1019C00003F580531A460323C2F82C317B68DA688A
:1019D0007B681B6803F58053C3F814217B68DA68C1
:1019E0007B681B6803F58053C3F8202100BF1437C0
:1019F000BD465DF8047B704780B485B000AF786069
:101A00000023FB6023E07B681969FA6813465B00DA
:101A10001344DB000B44BB60BB6800221A60BB6848
:101A200000225A60BB6800229A60BB680022DA601C
:101A3000BB6800221A61BB6800225A61B9687B68E2
:101A4000FA68123243F82210FB680133FB60FB682E
:101A5000032BD8D97B680022DA657B6800221A66DE
:101A60007B6800229A667B680022DA667B68002227
:101A70009A657B681B6803F580531A460323C2F8F6
:101A800030317B681A697B681B6803F58053C3F8A3
:101A90001C217B681B6903F148027B681B6803F506
:101AA0008053C3F8282100BF1437BD465DF8047B7E
:101AB0007047000080B489B000AF786039600023BF
:101AC000FB61864B7B618CE13B681A680121FB69F5
:101AD00001FA03F313403B613B69002B00F07E8168
:101AE0003B685B6803F00303012B05D03B685B6830
:101AF00003F00303022B30D17B689B68BB61FB6959
:101B00005B00032202FA03F3DB43BA691340BB61B3
:101B10003B68DA68FB695B0002FA03F3BA691343B6
:101B2000BB617B68BA699A607B685B68BB610122B4
:101B3000FB6902FA03F3DB43BA691340BB613B68FC
:101B40005B681B0903F00102FB6902FA03F3BA693F
:101B50001343BB617B68BA695A603B685B6803F0FA
:101B60000303032B17D07B68DB68BB61FB695B0059
:101B7000032202FA03F3DB43BA691340BB613B68FB
:101B80009A68FB695B0002FA03F3BA691343BB610D
:101B90007B68BA69DA603B685B6803F00303022B79
:101BA00023D1FB69DA087B68083253F82230BB6125
:101BB000FB6903F007039B000F2202FA03F3DB43E8
:101BC000BA691340BB613B681A69FB6903F00703FC
:101BD0009B0002FA03F3BA691343BB61FB69DA089D
:101BE0007B680832B96943F822107B681B68BB61C7
:101BF000FB695B00032202FA03F3DB43BA6913407B
:101C0000BB613B685B6803F00302FB695B0002FA9F
:101C100003F3BA691343BB617B68BA691A603B6816
:101C20005B6803F44033002B00F0D8802C4BD3F8D2
:101C3000F4302B4A43F00203C2F8F430284BD3F8B7
:101C4000F43003F00203FB60FB68264AFB699B0843
:101C5000023352F82330BB61FB6903F003039B009E
:101C60000F2202FA03F3DB43BA691340BB617B68BE
:101C70001D4A93424AD07B681C4A93422BD07B6812
:101C80001B4A934225D07B681A4A93421FD07B6837
:101C9000194A934219D07B68184A934213D07B6843
:101CA000174A93420DD07B68164A934207D07B684F
:101CB000154A934201D1092329E00A2327E007238B
:101CC00025E0062323E0052321E004231FE003236E
:101CD0001DE002231BE0012319E000BF8000005833
:101CE0000044025800040058000002580004025842
:101CF00000080258000C0258001002580014025844
:101D000000180258001C0258002402580023FA69E7
:101D100002F0030292009340BA691343BB61384951
:101D2000FB699B080233BA6941F823204FF0B043A6
:101D30001B68BB613B69DB43BA691340BB613B680D
:101D40005B6803F48013002B03D0BA693B6913432B
:101D5000BB614FF0B042BB6913604FF0B0435B68AA
:101D6000BB613B69DB43BA691340BB613B685B689D
:101D700003F40013002B03D0BA693B691343BB6122
:101D80004FF0B042BB6953607B695B68BB613B69E4
:101D9000DB43BA691340BB613B685B6803F4003303
:101DA000002B03D0BA693B691343BB617B69BA69F5
:101DB0005A607B691B68BB613B69DB43BA691340AE
:101DC000BB613B685B6803F48033002B03D0BA69C6
:101DD0003B691343BB617B69BA691A60FB690133D4
:101DE000FB613B681A68FB6922FA03F3002B7FF45E
:101DF0006BAE00BF00BF2437BD465DF8047B704763
:101E00000004005880B483B000AF78600B467B803C
:101E100013467B707B78002B03D07A887B689A61AD
:101E200003E07B881A047B689A6100BF0C37BD46CB
:101E30005DF8047B704780B485B000AF78600B46D6
:101E40007B807B685B69FB607A88FB6813401A04BF
:101E5000FB68D9437B880B401A437B689A6100BFBB
:101E60001437BD465DF8047B7047000080B584B030
:101E700000AF7860194BDB6803F00403042B0AD031
:101E8000164BDB6803F007037A689A4201D00123FE
:101E90001FE000231DE0114BDB6823F007020F4910
:101EA0007B681343CB60FFF7BDF8F86009E0FFF7EC
:101EB000B9F80246FB68D31AB3F57A7F01D901233A
:101EC00007E0064B5B6803F40053B3F5005FEED107
:101ED000002318461037BD4680BD00BF0048025899
:101EE00080B58CB000AF78607B68002B01D10123F6
:101EF0009DE37B681B6803F00103002B00F08780E3
:101F0000884B1B6903F03803FB62864B9B6ABB62FC
:101F1000FB6A102B07D0FB6A182B10D1BB6A03F0A9
:101F20000303022B0BD17F4B1B6803F40033002B00
:101F30006CD07B685B68002B68D1012377E37B68FA
:101F40005B68B3F5803F06D1764B1B68754A43F456
:101F5000803313602EE07B685B68002B0CD1714BE3
:101F60001B68704A23F4803313606E4B1B686D4A04
:101F700023F4802313601DE07B685B68B3F5A02F1A
:101F80000CD1684B1B68674A43F480231360654B90
:101F90001B68644A43F4803313600BE0614B1B6899
:101FA000604A23F4803313605E4B1B685D4A23F460
:101FB000802313607B685B68002B13D0FFF732F837
:101FC000786208E0FFF72EF802467B6AD31A642B8A
:101FD00001D903232BE3534B1B6803F40033002B7D
:101FE000F0D014E0FFF71EF8786208E0FFF71AF867
:101FF00002467B6AD31A642B01D9032317E3494BAA
:102000001B6803F40033002BF0D100E000BF7B68B5
:102010001B6803F00203002B00F08C80414B1B690E
:1020200003F038033B623F4B9B6AFB613B6A002B2A
:1020300007D03B6A182B37D1FB6903F00303002B51
:1020400032D1384B1B6803F00403002B05D07B68AA
:10205000DB68002B01D10123E9E2324B1B6823F03E
:1020600019027B68DB682F4913430B60FEF7DAFF28
:10207000786208E0FEF7D6FF02467B6AD31A022B8D
:1020800001D90323D3E2274B1B6803F00403002B81
:10209000F0D0244B5B6823F0FE427B681B691B0673
:1020A000204913434B6045E07B68DB68002B26D05A
:1020B0001C4B1B6823F019027B68DB68194913432A
:1020C0000B60FEF7AFFF786208E0FEF7ABFF024659
:1020D0007B6AD31A022B01D90323A8E2114B1B6898
:1020E00003F00403002BF0D00E4B5B6823F0FE429C
:1020F0007B681B691B060B4913434B601AE0094BB5
:102100001B68084A23F001031360FEF78BFF786217
:102110000AE0FEF787FF02467B6AD31A022B03D937
:10212000032384E200440258964B1B6803F0040327
:10213000002BEED17B681B6803F01003002B6AD0E4
:10214000904B1B6903F03803BB618E4B9B6A7B612C
:10215000BB69082B07D0BB69182B1BD17B6903F027
:102160000303012B16D1874B1B6803F48073002BEC
:1021700005D07B68DB69802B01D0012357E2814BBE
:10218000DB6823F07C527B681B6A1B067D49134386
:10219000CB6040E07B68DB69002B23D0794B1B6868
:1021A000784A43F080031360FEF73CFF786208E052
:1021B000FEF738FF02467B6AD31A022B01D90323AC
:1021C00035E2704B1B6803F48073002BF0D06D4B2D
:1021D000DB6823F07C527B681B6A1B06694913434A
:1021E000CB6018E0674B1B68664A23F080031360DE
:1021F000FEF718FF786208E0FEF714FF02467B6ADC
:10220000D31A022B01D9032311E25E4B1B6803F49E
:102210008073002BF0D17B681B6803F00803002B50
:1022200036D07B685B69002B19D0564B5B6F554AE3
:1022300043F001035367FEF7F5FE786208E0FEF70E
:10224000F1FE02467B6AD31A022B01D90323EEE189
:102250004C4B5B6F03F00203002BF0D018E0494BAE
:102260005B6F484A23F001035367FEF7DBFE786299
:1022700008E0FEF7D7FE02467B6AD31A022B01D98B
:102280000323D4E13F4B5B6F03F00203002BF0D13B
:102290007B681B6803F02003002B36D07B689B69AA
:1022A000002B19D0374B1B68364A43F48053136018
:1022B000FEF7B8FE786208E0FEF7B4FE02467B6ADD
:1022C000D31A022B01D90323B1E12E4B1B6803F46F
:1022D0000053002BF0D018E02A4B1B68294A23F446
:1022E00080531360FEF79EFE786208E0FEF79AFEC8
:1022F00002467B6AD31A022B01D9032397E1214BB3
:102300001B6803F40053002BF0D17B681B6803F0BB
:102310000403002B00F086801B4B1B681A4A43F411
:1023200080731360FEF77EFE786208E0FEF77AFEA7
:1023300002467B6AD31A642B01D9032377E1124B3F
:102340001B6803F48073002BF0D07B689B68012B23
:1023500006D10C4B1B6F0B4A43F00103136732E0AD
:102360007B689B68002B11D1064B1B6F054A23F03D
:1023700001031367034B1B6F024A23F00403136727
:1023800021E000BF00440258004802587B689B6867
:10239000052B0CD1834B1B6F824A43F00403136758
:1023A000804B1B6F7F4A43F0010313670BE07D4BAB
:1023B0001B6F7C4A23F0010313677A4B1B6F794A2A
:1023C00023F0040313677B689B68002B15D0FEF78E
:1023D00029FE78620AE0FEF725FE02467B6AD31AE0
:1023E00041F28832934201D9032320E16D4B1B6FE8
:1023F00003F00203002BEED014E0FEF713FE786228
:102400000AE0FEF70FFE02467B6AD31A41F28832D9
:10241000934201D903230AE1624B1B6F03F00203CD
:10242000002BEED17B685B6A002B00F0FF805D4BD8
:102430001B6903F03803182B00F0BA807B685B6AD5
:10244000022B40F09580574B1B68564A23F080734F
:102450001360FEF7E7FD786208E0FEF7E3FD024651
:102460007B6AD31A022B01D90323E0E04D4B1B6892
:1024700003F00073002BF0D14A4B9A6A4A4B134089
:102480007A68916A7A68D26A12010A43454913430D
:102490008B627B681B6B013BC3F308027B685B6B41
:1024A000013B5B029BB21A437B689B6B013B1B04A5
:1024B00003F4FE031A437B68DB6B013B1B0603F04E
:1024C000FE43384913430B63364BDB6A354A23F02E
:1024D0000103D362334B5A6B344B13407A68926CCE
:1024E000D200304913434B632E4BDB6A23F00C02BE
:1024F0007B681B6C2B491343CB622A4BDB6A23F0AE
:1025000002027B685B6C27491343CB62254BDB6A75
:10251000244A43F48033D362224BDB6A214A43F4DA
:102520000033D3621F4BDB6A1E4A43F48023D3621D
:102530001C4BDB6A1B4A43F00103D362194B1B6837
:10254000184A43F080731360FEF76CFD786208E070
:10255000FEF768FD02467B6AD31A022B01D90323DA
:1025600065E0104B1B6803F00073002BF0D05DE0BA
:102570000C4B1B680B4A23F080731360FEF752FD6F
:10258000786208E0FEF74EFD02467B6AD31A022B02
:1025900001D903234BE0034B1B6803F00073002BAE
:1025A000F0D143E0004402580CFCFFFF0700FFFF9E
:1025B000214B9B6A3B61204B1B6BFB607B685B6A1A
:1025C000012B31D03B6903F003027B689B6A9A427E
:1025D0002AD13B691B0903F03F027B68DB6A9A4200
:1025E00022D1FB68C3F308027B681B6B013B9A4254
:1025F0001AD1FB685B0A03F07F027B685B6B013BCF
:102600009A4211D1FB681B0C03F07F027B689B6B25
:10261000013B9A4208D1FB681B0E03F07F027B68E6
:10262000DB6B013B9A4201D0012300E000231846F6
:102630003037BD4680BD00BF0044025880B586B02B
:1026400000AF786039607B68002B01D101239CE1E9
:102650008A4B1B6803F00F033A689A4210D9874BE4
:102660001B6823F00F0285493B6813430B60834BC3
:102670001B6803F00F033A689A4201D0012384E1FA
:102680007B681B6803F00403002B10D07B681A6979
:102690007B4B9B6903F070039A4208D9784B9B6986
:1026A00023F070027B681B69754913438B617B685B
:1026B0001B6803F00803002B10D07B685A69704B2D
:1026C000DB6903F070039A4208D96D4BDB6923F094
:1026D00070027B685B696A491343CB617B681B6846
:1026E00003F01003002B10D07B689A69644BDB6900
:1026F00003F4E0639A4208D9614BDB6923F4E0629A
:102700007B689B695E491343CB617B681B6803F060
:102710002003002B10D07B68DA69594B1B6A03F049
:1027200070039A4208D9564B1B6A23F070027B68EB
:10273000DB69534913430B627B681B6803F0020398
:10274000002B10D07B68DA684D4B9B6903F00F03B8
:102750009A4208D94A4B9B6923F00F027B68DB68D9
:10276000474913438B617B681B6803F00103002B0F
:1027700055D0434B9B6923F470627B689B6840494A
:1027800013438B617B685B68022B07D13C4B1B6852
:1027900003F40033002B21D10123F6E07B685B6852
:1027A000032B07D1364B1B6803F00073002B15D1A8
:1027B0000123EAE07B685B68012B07D1304B1B6883
:1027C00003F48073002B09D10123DEE02C4B1B683E
:1027D00003F00403002B01D10123D6E0284B1B6931
:1027E00023F007027B685B68254913430B61FEF702
:1027F00019FC78610AE0FEF715FC02467B69D31AE2
:1028000041F28832934201D90323BEE01C4B1B697D
:1028100003F038027B685B68DB009A42EBD17B688F
:102820001B6803F00203002B10D07B68DA68144B9E
:102830009B6903F00F039A4208D2114B9B6923F066
:102840000F027B68DB680E4913438B610B4B1B68DF
:1028500003F00F033A689A4214D2084B1B6823F026
:102860000F0206493B6813430B60044B1B6803F0DF
:102870000F033A689A4205D0012386E000200052F7
:10288000004402587B681B6803F00403002B10D03F
:102890007B681A693F4B9B6903F070039A4208D228
:1028A0003C4B9B6923F070027B681B6939491343D9
:1028B0008B617B681B6803F00803002B10D07B68DA
:1028C0005A69344BDB6903F070039A4208D2314BEA
:1028D000DB6923F070027B685B692E491343CB618F
:1028E0007B681B6803F01003002B10D07B689A698B
:1028F000284BDB6903F4E0639A4208D2254BDB697D
:1029000023F4E0627B689B6922491343CB617B68B7
:102910001B6803F02003002B10D07B68DA691D4B85
:102920001B6A03F070039A4208D21A4B1B6A23F009
:1029300070027B68DB69174913430B6200F034F8BF
:102940000246144B9B691B0A03F00F031249CB5C30
:1029500003F01F0322FA03F33B610E4B9B6903F064
:102960000F030D4AD35C03F01F033A6922FA03F305
:102970000A4A13600A4A3B6913600A4B1B681846EF
:10298000FEF7FCF90346FB73FB7B18461837BD4680
:1029900080BD00BF004402581C86000804000020CF
:1029A000000000200800002080B489B000AFB34BC5
:1029B0001B6903F03803182B00F2558101A252F86D
:1029C00023F000BF292A0008672C0008672C0008A4
:1029D000672C0008672C0008672C0008672C00088B
:1029E000672C00084F2A0008672C0008672C000895
:1029F000672C0008672C0008672C0008672C00086B
:102A0000672C0008552A0008672C0008672C00086E
:102A1000672C0008672C0008672C0008672C00084A
:102A2000672C00085B2A0008944B1B6803F0200306
:102A3000002B09D0914B1B68DB0803F00303904A7D
:102A400022FA03F3BB6111E18D4BBB610EE18D4BAB
:102A5000BB610BE18C4BBB6108E1884B9B6A03F0C7
:102A600003037B61854B9B6A1B0903F03F033B61BA
:102A7000824BDB6A03F00103FB60804B5B6BDB087E
:102A8000C3F30C03FA6802FB03F307EE903AF8EE87
:102A9000677AC7ED027A3B69002B00F0E1807B6921
:102AA000022B00F083807B69022B00F2A1807B69FE
:102AB000002B03D07B69012B56D099E06F4B1B682C
:102AC00003F02003002B2DD06C4B1B68DB0803F0B8
:102AD00003036B4A22FA03F37B607B6807EE903AAC
:102AE000F8EE676A3B6907EE903AF8EE677A86EE91
:102AF000A77A624B1B6BC3F3080307EE903AF8EE1C
:102B0000676A97ED026ADFED615AC6EE257A76EEC6
:102B1000A77AF7EE006A77EEA67A67EE277AC7ED16
:102B2000077A87E03B6907EE903AF8EE677ADFEDC7
:102B3000586A86EEA77A514B1B6BC3F3080307EE66
:102B4000903AF8EE676A97ED026ADFED505AC6EEEA
:102B5000257A76EEA77AF7EE006A77EEA67A67EE28
:102B6000277AC7ED077A65E03B6907EE903AF8EE01
:102B7000677ADFED486A86EEA77A404B1B6BC3F39A
:102B8000080307EE903AF8EE676A97ED026ADFED08
:102B90003F5AC6EE257A76EEA77AF7EE006A77EE10
:102BA000A67A67EE277AC7ED077A43E03B6907EE1E
:102BB000903AF8EE677ADFED386A86EEA77A2F4B07
:102BC0001B6BC3F3080307EE903AF8EE676A97EDC4
:102BD000026ADFED2E5AC6EE257A76EEA77AF7EE78
:102BE000006A77EEA67A67EE277AC7ED077A21E0CA
:102BF0003B6907EE903AF8EE677ADFED266A86EEDB
:102C0000A77A1E4B1B6BC3F3080307EE903AF8EE4E
:102C1000676A97ED026ADFED1D5AC6EE257A76EEF9
:102C2000A77AF7EE006A77EEA67A67EE277AC7ED05
:102C3000077A00BF114B1B6B5B0A03F07F03013364
:102C40003B603B6807EE903AB8EE677AD7ED076ACB
:102C5000C6EE877AFCEEE77A17EE903ABB6105E0A4
:102C60000023BB6102E0074BBB6100BFBB69184694
:102C70002437BD465DF8047B704700BF004402580E
:102C80000090D00300093D0000127A0000000046C9
:102C90000024744C0024744A0024F44A80B582B0A5
:102CA00000AFFFF781FE0246104B9B691B0A03F041
:102CB0000F030F49CB5C03F01F0322FA03F37B6081
:102CC0000A4B9B6903F00F03094AD35C03F01F030F
:102CD0007A6822FA03F3074A1360074A7B68136095
:102CE000044B1B6818460837BD4680BD0044025897
:102CF0001C860008040000200000002080B500AF02
:102D0000FFF7CCFF0246064BDB691B0903F0070304
:102D10000449CB5C03F01F0322FA03F3184680BD7D
:102D2000004402581C86000880B500AFFFF7B6FFCC
:102D30000246064BDB691B0A03F007030449CB5C20
:102D400003F01F0322FA03F3184680BD0044025823
:102D50001C86000880B483B000AF786039607B685F
:102D60003F221A601A4B1B6903F007027B685A6006
:102D7000174B9B6903F470627B689A60144B9B69E4
:102D800003F00F027B68DA60114B9B6903F070025D
:102D90007B681A610E4BDB6903F070027B685A6135
:102DA0000B4BDB6903F4E0627B689A61084B1B6A9A
:102DB00003F070027B68DA61064B1B6803F00F02B8
:102DC0003B681A6000BF0C37BD465DF8047B704756
:102DD000004402580020005280B586B000AF7860F1
:102DE0000023FB750023BB757B681B6803F0006341
:102DF000002B3FD07B681B6EB3F5401F2AD0B3F584
:102E0000401F24D8B3F5001F18D0B3F5001F1ED8FB
:102E1000002B03D0B3F5801F07D018E0A44BDB6A6A
:102E2000A34A43F40033D36215E07B6804330221E4
:102E3000184601F089F90346FB750CE07B682433E2
:102E40000221184601F032FA0346FB7503E0012324
:102E5000FB7500E000BFFB7D002B09D1944B1B6D7F
:102E600023F440127B681B6E914913430B6501E00C
:102E7000FB7DBB757B681B6803F48073002B3DD022
:102E80007B685B6D042B26D801A252F823F000BFAB
:102E9000A52E0008B32E0008C52E0008DD2E000860
:102EA000DD2E0008824BDB6A814A43F40033D36293
:102EB00015E07B6804330021184601F045F903460C
:102EC000FB750CE07B6824330021184601F0EEF915
:102ED0000346FB7503E00123FB7500E000BFFB7DAB
:102EE000002B09D1724B1B6D23F007027B685B6DD1
:102EF0006F4913430B6501E0FB7DBB757B681B6865
:102F000003F48063002B51D07B68D3F8A030B3F575
:102F1000200F36D0B3F5200F30D8B3F5000F32D0E4
:102F2000B3F5000F2AD8B3F5C00F2ED0B3F5C00FFC
:102F300024D8B3F5800F18D0B3F5800F1ED8002B1E
:102F400003D0B3F5001F07D018E0594BDB6A584A8D
:102F500043F40033D36219E07B6804330021184640
:102F600001F0F2F80346FB7510E07B682433002182
:102F7000184601F09BF90346FB7507E00123FB753A
:102F800004E000BF02E000BF00E000BFFB7D002BBB
:102F90000AD1474B9B6D23F460027B68D3F8A030C5
:102FA000434913438B6501E0FB7DBB757B681B6860
:102FB00003F40063002B51D07B68D3F8A430B3F145
:102FC000A06F36D0B3F1A06F30D8B3F1806F32D09C
:102FD000B3F1806F2AD8B3F1407F2ED0B3F1407F98
:102FE00024D8B3F1007F18D0B3F1007F1ED8002B96
:102FF00003D0B3F1807F07D018E02D4BDB6A2C4A59
:1030000043F40033D36219E07B680433002118468F
:1030100001F09AF80346FB7510E07B682433002129
:10302000184601F043F90346FB7507E00123FB75E1
:1030300004E000BF02E000BF00E000BFFB7D002B0A
:103040000AD11B4B9B6D23F0E0627B68D3F8A43060
:10305000174913438B6501E0FB7DBB757B681B68DB
:1030600003F00073002B35D07B689B6C302B1CD099
:10307000302B17D8202B0CD0202B13D8002B19D095
:10308000102B0FD10A4BDB6A094A43F40033D36299
:1030900011E07B6804330221184601F055F803461D
:1030A000FB7508E00123FB7505E000BF03E000BFEE
:1030B0000044025800BFFB7D002B09D1A34BDB6C01
:1030C00023F030027B689B6CA0491343CB6401E082
:1030D000FB7DBB757B681B6803F48053002B47D0D6
:1030E0007B689B6DB3F5804F30D0B3F5804F2AD805
:1030F000B3F5405F2CD0B3F5405F24D8B3F5005F43
:1031000018D0B3F5005F1ED8002B03D0B3F5805F55
:1031100007D018E08D4BDB6A8C4A43F40033D3624E
:1031200017E07B6804330021184601F00DF80346D0
:10313000FB750EE07B6824330021184601F0B6F8D9
:103140000346FB7505E00123FB7502E000BF00E0CC
:1031500000BFFB7D002B09D17C4B1B6D23F4E042AB
:103160007B689B6D794913430B6501E0FB7DBB7563
:103170007B681B6803F40053002B49D07B68DB6D30
:10318000B3F5A02F2ED0B3F5A02F28D8B3F5802FFC
:103190002AD0B3F5802F22D8B3F5403F26D0B3F51F
:1031A000403F1CD8B3F5003F10D0B3F5003F16D810
:1031B000002B1DD0B3F5803F11D17B680433012172
:1031C000184600F0C1FF0346FB7512E07B6824330C
:1031D0000121184601F06AF80346FB7509E0012356
:1031E000FB7506E000BF04E000BF02E000BF00E0A6
:1031F00000BFFB7D002B09D1544B1B6D23F4E02253
:103200007B68DB6D514913430B6501E0FB7DBB75AA
:103210007B681B6803F48043002B4BD07B68D3F89A
:10322000A830B3F1A04F2ED0B3F1A04F28D8B3F1FE
:10323000804F2AD0B3F1804F22D8B3F1405F26D01F
:10324000B3F1405F1CD8B3F1005F10D0B3F1005F61
:1032500016D8002B1DD0B3F1805F11D17B680433E9
:103260000121184600F070FF0346FB7512E07B68F1
:1032700024330121184601F019F80346FB7509E0D3
:103280000123FB7506E000BF04E000BF02E000BFC1
:1032900000E000BFFB7D002B0AD12C4B9B6D23F07F
:1032A000E0427B68D3F8A830284913438B6501E0DE
:1032B000FB7DBB757B681B6803F40043002B2FD09C
:1032C0007B689B6EB3F1005F0ED0B3F1005F14D842
:1032D000002B15D0B3F1805F0FD11C4BDB6A1B4A6A
:1032E00043F40033D3620CE07B68043301211846B9
:1032F00000F02AFF0346FB7503E00123FB7500E0A5
:1033000000BFFB7D002B09D1104B1B6D23F04052F9
:103310007B689B6E0D4913430B6501E0FB7DBB751C
:103320007B681B6803F08073002B34D07B685B6C78
:10333000032B1DD801A252F823F000BF77330008F9
:10334000513300085F330008773300080044025807
:10335000B14BDB6AB04A43F40033D3620CE07B68C4
:1033600004330221184600F0EFFE0346FB7503E02C
:103370000123FB7500E000BFFB7D002B09D1A64BAC
:10338000DB6C23F003027B685B6CA3491343CB64C3
:1033900001E0FB7DBB757B681B6803F48003002B99
:1033A00000F086809D4B1B689C4A43F48073136039
:1033B000FDF738FE386109E0FDF734FE02463B694F
:1033C000D31A642B02D90323FB7505E0934B1B68CA
:1033D00003F48073002BEFD0FB7D002B66D18E4B66
:1033E0001A6F7B68D3F8AC30534003F44073002B62
:1033F00013D0894B1B6F23F44073FB60864B1B6F0C
:10340000854A43F480331367834B1B6F824A23F44E
:1034100080331367804AFB6813677B68D3F8AC304E
:10342000B3F5807F15D1FDF7FDFD38610BE0FDF7A9
:10343000F9FD02463B69D31A41F28832934202D920
:103440000323FB7505E0744B1B6F03F00203002B95
:10345000EDD0FB7D002B26D17B68D3F8AC3003F494
:103460004073B3F5407F0DD16B4B1B6923F47C5245
:103470007B68D3F8AC301909694B0B40664913439C
:103480000B6105E0644B1B69634A23F47C531361B1
:10349000614B1A6F7B68D3F8AC30C3F30B035E4902
:1034A00013430B6704E0FB7DBB7501E0FB7DBB753F
:1034B0007B681B6803F00103002B7ED07B685B6F89
:1034C000282B67D801A252F823F000BF9B350008D3
:1034D00095350008953500089535000895350008A4
:1034E00095350008953500089535000871350008B8
:1034F0009535000895350008953500089535000884
:103500009535000895350008953500088335000885
:103510009535000895350008953500089535000863
:103520009535000895350008953500089B3500084D
:103530009535000895350008953500089535000843
:103540009535000895350008953500089B3500082D
:103550009535000895350008953500089535000823
:103560009535000895350008953500089B3500080D
:103570007B6804330121184600F0E6FD0346FB7525
:103580000CE07B6824330121184600F08FFE0346CF
:10359000FB7503E00123FB7500E000BFFB7D002B02
:1035A00009D11D4B5B6D23F038027B685B6F1A49B4
:1035B00013434B6501E0FB7DBB757B681B6803F023
:1035C0000203002B3ED07B681B6F052B20D801A285
:1035D00052F823F025360008ED350008FF350008C5
:1035E0002536000825360008253600087B68043398
:1035F0000121184600F0A8FD0346FB7513E07B6827
:1036000024330121184600F051FE0346FB750AE001
:103610000123FB7507E000BF004402580048025830
:10362000CFFFFF0000BFFB7D002B09D19F4B5B6DDF
:1036300023F007027B681B6F9C4913434B6501E035
:10364000FB7DBB757B681B6803F00403002B39D03E
:103650007B68D3F88C30052B20D801A252F823F0D8
:10366000A3360008793600088B360008A336000818
:10367000A3360008A33600087B68043301211846EE
:1036800000F062FD0346FB750CE07B6824330121EA
:10369000184600F00BFE0346FB7503E00123FB75A3
:1036A00000E000BFFB7D002B0AD1804B9B6D23F017
:1036B00007027B68D3F88C307C4913438B6501E0AB
:1036C000FB7DBB757B681B6803F02003002B4BD090
:1036D0007B68D3F88830B3F1A04F2ED0B3F1A04F60
:1036E00028D8B3F1804F2AD0B3F1804F22D8B3F15C
:1036F000405F26D0B3F1405F1CD8B3F1005F10D01B
:10370000B3F1005F16D8002B1DD0B3F1805F11D14B
:103710007B6804330021184600F016FD0346FB7554
:1037200012E07B6824330221184600F0BFFD0346F7
:10373000FB7509E00123FB7506E000BF04E000BF54
:1037400002E000BF00E000BFFB7D002B0AD1574B19
:103750005B6D23F0E0427B68D3F888305349134314
:103760004B6501E0FB7DBB757B681B6803F0400384
:10377000002B4BD07B68D3F89430B3F5A05F2ED0EC
:10378000B3F5A05F28D8B3F5805F2AD0B3F5805F8A
:1037900022D8B3F5406F26D0B3F5406F1CD8B3F5EF
:1037A000006F10D0B3F5006F16D8002B1DD0B3F505
:1037B000806F11D17B6804330021184600F0C4FCEF
:1037C0000346FB7512E07B6824330221184600F0A3
:1037D0006DFD0346FB7509E00123FB7506E000BFA4
:1037E00004E000BF02E000BF00E000BFFB7D002B53
:1037F0000AD12E4B9B6D23F4E0527B68D3F89430B2
:103800002A4913438B6501E0FB7DBB757B681B6810
:1038100003F08003002B4DD07B68D3F89830B3F5CC
:10382000204F2ED0B3F5204F28D8B3F5004F2AD023
:10383000B3F5004F22D8B3F5C04F26D0B3F5C04F33
:103840001CD8B3F5804F10D0B3F5804F16D8002B9D
:103850001DD0B3F5005F11D17B68043300211846F9
:1038600000F072FC0346FB7512E07B6824330221F2
:10387000184600F01BFD0346FB7509E00123FB75AC
:1038800006E000BF04E000BF02E000BF00E000BFB0
:10389000FB7D002B0CD1054B9B6D23F460427B68B4
:1038A000D3F89830014913438B6503E00044025874
:1038B000FB7DBB757B681B6803F00803002B18D0E9
:1038C0007B68DB6FB3F5805F0AD17B68243302210C
:1038D000184600F0EBFC0346002B01D00123BB751A
:1038E0008A4B5B6D23F440527B68DB6F874913433F
:1038F0004B657B681B6803F01003002B1AD07B68B4
:10390000D3F89030B3F5807F0AD17B68243302214D
:10391000184600F0CBFC0346002B01D00123BB75F9
:103920007A4B9B6D23F440727B68D3F890307749D3
:1039300013438B657B681B6803F40023002B34D092
:103940007B68D3F89C30B3F5003F1DD0B3F5003F42
:1039500017D8002B03D0B3F5803F09D011E07B6866
:1039600004330021184600F0EFFB0346FB750CE022
:103970007B6824330221184600F098FC0346FB754F
:1039800003E00123FB7500E000BFFB7D002B0AD1A3
:103990005E4B9B6D23F440327B68D3F89C305B49CF
:1039A00013438B6501E0FB7DBB757B681B6803F4EB
:1039B0008023002B33D07B68D3F88030B3F5401FD1
:1039C0001CD0B3F5401F16D8B3F5801F03D0B3F554
:1039D000001F07D00FE04D4BDB6A4C4A43F4003325
:1039E000D3620CE07B6824330121184600F05EFCB2
:1039F0000346FB7503E00123FB7500E000BFFB7D80
:103A0000002B0AD1414B5B6D23F440127B68D3F845
:103A100080303E4913434B6501E0FB7DBB757B68FD
:103A20001B6803F48033002B29D07B68DB6C002BF0
:103A300003D0B3F5803F07D00FE0344BDB6A334A45
:103A400043F40033D3620BE07B6804330221184651
:103A500000F07AFB0346FB7502E00123FB7500BF13
:103A6000FB7D002B09D1294BDB6C23F480327B6872
:103A7000DB6C26491343CB6401E0FB7DBB757B689F
:103A80001B6803F00053002B0AD07B68243302210B
:103A9000184600F00BFC0346002B01D00123BB7538
:103AA0007B681B6803F40033002B33D07B689B6F6B
:103AB000B3F5407F17D0B3F5407F11D8B3F5007F41
:103AC00013D0B3F5007F0BD8002B10D0B3F5807F57
:103AD00006D10E4BDB6A0D4A43F40033D36207E094
:103AE0000123FB7504E000BF02E000BF00E000BF5F
:103AF000FB7D002B0CD1054B5B6D23F440727B6882
:103B00009B6F024913434B6504E000BF0044025819
:103B1000FB7DBB757B681B6803F48013002B08D00A
:103B2000294B1B6D23F000427B68DB6E2649134353
:103B30000B657B681B6803F40013002B08D0224B35
:103B40001B6D23F080727B685B6E1F4913430B650E
:103B50007B681B6803F08043002B0DD01A4B1B6958
:103B6000194A23F400431361174B1A697B68D3F891
:103B7000B030154913430B617B681B68002B08DAD2
:103B8000114BDB6C23F040527B681B6D0E491343D5
:103B9000CB647B681B6803F40003002B09D00A4B3D
:103BA0005B6D23F440027B68D3F8843006491343ED
:103BB0004B65BB7D002B01D1002300E0012318469B
:103BC0001837BD4680BD00BF0044025880B500AF25
:103BD000FFF764F80246064B1B6A1B0903F0070354
:103BE0000449CB5C03F01F0322FA03F3184680BD9F
:103BF000004402581C86000880B489B000AF786089
:103C0000A14B9B6A03F00303BB619F4B9B6A1B0B99
:103C100003F03F037B619C4BDB6A1B0903F001034C
:103C20003B61994BDB6BDB08C3F30C033A6902FB86
:103C300003F307EE903AF8EE677AC7ED037A7B69F3
:103C4000002B00F01181BB69022B00F08380BB695F
:103C5000022B00F2A180BB69002B03D0BB69012BB2
:103C600056D099E0884B1B6803F02003002B2DD021
:103C7000854B1B68DB0803F00303844A22FA03F335
:103C8000BB60BB6807EE903AF8EE676A7B6907EEA7
:103C9000903AF8EE677A86EEA77A7B4B9B6BC3F37C
:103CA000080307EE903AF8EE676A97ED036ADFEDD6
:103CB000785AC6EE257A76EEA77AF7EE006A77EEA6
:103CC000A67A67EE277AC7ED077A87E07B6907EE69
:103CD000903AF8EE677ADFED6F6A86EEA77A6A4B64
:103CE0009B6BC3F3080307EE903AF8EE676A97ED13
:103CF000036ADFED675AC6EE257A76EEA77AF7EE0D
:103D0000006A77EEA67A67EE277AC7ED077A65E054
:103D10007B6907EE903AF8EE677ADFED5F6A86EE30
:103D2000A77A594B9B6BC3F3080307EE903AF8EE62
:103D3000676A97ED036ADFED565AC6EE257A76EE8E
:103D4000A77AF7EE006A77EEA67A67EE277AC7EDD4
:103D5000077A43E07B6907EE903AF8EE677ADFED89
:103D60004F6A86EEA77A484B9B6BC3F3080307EEB6
:103D7000903AF8EE676A97ED036ADFED455AC6EEB2
:103D8000257A76EEA77AF7EE006A77EEA67A67EEE6
:103D9000277AC7ED077A21E07B6907EE903AF8EEC3
:103DA000677ADFED3D6A86EEA77A374B9B6BC3F3EC
:103DB000080307EE903AF8EE676A97ED036ADFEDC5
:103DC000345AC6EE257A76EEA77AF7EE006A77EED9
:103DD000A67A67EE277AC7ED077A00BF2A4B9B6B5E
:103DE0005B0A03F07F0307EE903AF8EE677AB7EECE
:103DF000007A37EE877AD7ED076AC6EE877AFCEE4F
:103E0000E77A17EE902A7B681A601F4B9B6B1B0C9E
:103E100003F07F0307EE903AF8EE677AB7EE007A88
:103E200037EE877AD7ED076AC6EE877AFCEEE77A37
:103E300017EE902A7B685A60134B9B6B1B0E03F0A6
:103E40007F0307EE903AF8EE677AB7EE007A37EE26
:103E5000877AD7ED076AC6EE877AFCEEE77A17EE27
:103E6000902A7B689A6008E07B6800221A607B6871
:103E700000225A607B6800229A6000BF2437BD464A
:103E80005DF8047B704700BF004402580090D003E7
:103E9000000000460024744C0024744A0024F44AB4
:103EA00080B489B000AF7860A14B9B6A03F0030334
:103EB000BB619F4B9B6A1B0D03F03F037B619C4BD7
:103EC000DB6A1B0A03F001033B61994B5B6CDB0867
:103ED000C3F30C033A6902FB03F307EE903AF8EEE2
:103EE000677AC7ED037A7B69002B00F01181BB690B
:103EF000022B00F08380BB69022B00F2A180BB691A
:103F0000002B03D0BB69012B56D099E0884B1B686E
:103F100003F02003002B2DD0854B1B68DB0803F03A
:103F20000303844A22FA03F3BB60BB6807EE903AAE
:103F3000F8EE676A7B6907EE903AF8EE677A86EEEC
:103F4000A77A7B4B1B6CC3F3080307EE903AF8EE9D
:103F5000676A97ED036ADFED785AC6EE257A76EE4A
:103F6000A77AF7EE006A77EEA67A67EE277AC7EDB2
:103F7000077A87E07B6907EE903AF8EE677ADFED23
:103F80006F6A86EEA77A6A4B1B6CC3F3080307EED1
:103F9000903AF8EE676A97ED036ADFED675AC6EE6E
:103FA000257A76EEA77AF7EE006A77EEA67A67EEC4
:103FB000277AC7ED077A65E07B6907EE903AF8EE5D
:103FC000677ADFED5F6A86EEA77A594B1B6CC3F305
:103FD000080307EE903AF8EE676A97ED036ADFEDA3
:103FE000565AC6EE257A76EEA77AF7EE006A77EE95
:103FF000A67A67EE277AC7ED077A43E07B6907EE7A
:10400000903AF8EE677ADFED4F6A86EEA77A484B72
:104010001B6CC3F3080307EE903AF8EE676A97ED5E
:10402000036ADFED455AC6EE257A76EEA77AF7EEFB
:10403000006A77EEA67A67EE277AC7ED077A21E065
:104040007B6907EE903AF8EE677ADFED3D6A86EE1F
:10405000A77A374B1B6CC3F3080307EE903AF8EED0
:10406000676A97ED036ADFED345AC6EE257A76EE7D
:10407000A77AF7EE006A77EEA67A67EE277AC7EDA1
:10408000077A00BF2A4B1B6C5B0A03F07F0307EE25
:10409000903AF8EE677AB7EE007A37EE877AD7ED86
:1040A000076AC6EE877AFCEEE77A17EE902A7B68FD
:1040B0001A601F4B1B6C1B0C03F07F0307EE903A3A
:1040C000F8EE677AB7EE007A37EE877AD7ED076AAF
:1040D000C6EE877AFCEEE77A17EE902A7B685A6084
:1040E000134B1B6C1B0E03F07F0307EE903AF8EEA8
:1040F000677AB7EE007A37EE877AD7ED076AC6EEB1
:10410000877AFCEEE77A17EE902A7B689A6008E0DF
:104110007B6800221A607B6800225A607B6800225C
:104120009A6000BF2437BD465DF8047B704700BF2E
:10413000004402580090D003000000460024744C54
:104140000024744A0024F44A80B584B000AF78603B
:1041500039600023FB73534B9B6A03F00303032B6B
:1041600001D1012399E04F4B1B684E4A23F0806335
:104170001360FCF757FFB86008E0FCF753FF0246F6
:10418000BB68D31A022B01D9032386E0454B1B6879
:1041900003F00063002BF0D1424B9B6A23F47C3286
:1041A0007B681B681B033F4913438B627B685B681A
:1041B000013BC3F308027B689B68013B5B029BB237
:1041C0001A437B68DB68013B1B0403F4FE031A43BC
:1041D0007B681B69013B1B0603F0FE433149134317
:1041E0008B63304BDB6A23F0C0027B685B692D492F
:1041F0001343CB622B4BDB6A23F020027B689B6965
:1042000028491343CB62274BDB6A264A23F010036D
:10421000D362244BDA6B244B13407A68D269D20004
:1042200020491343CB631F4BDB6A1E4A43F0100344
:10423000D3623B68002B06D11A4BDB6A194A43F460
:104240000023D3620FE03B68012B06D1154BDB6ADC
:10425000144A43F48013D36205E0124BDB6A114A1F
:1042600043F40013D3620F4B1B680E4A43F0806384
:104270001360FCF7D7FEB86008E0FCF7D3FE0246F7
:10428000BB68D31A022B01D9032306E0054B1B6838
:1042900003F00063002BF0D0FB7B18461037BD46BF
:1042A00080BD00BF004402580700FFFF80B584B006
:1042B00000AF786039600023FB73534B9B6A03F0B7
:1042C0000303032B01D1012399E04F4B1B684E4A96
:1042D00023F080531360FCF7A5FEB86008E0FCF7FC
:1042E000A1FE0246BB68D31A022B01D9032386E044
:1042F000454B1B6803F00053002BF0D1424B9B6AE7
:1043000023F07C727B681B681B053F4913438B625B
:104310007B685B68013BC3F308027B689B68013BD9
:104320005B029BB21A437B68DB68013B1B0403F40E
:10433000FE031A437B681B69013B1B0603F0FE4327
:10434000314913430B64304BDB6A23F440627B68D2
:104350005B692D491343CB622B4BDB6A23F400725C
:104360007B689B6928491343CB62274BDB6A264A4B
:1043700023F48073D362244B5A6C244B13407A6825
:10438000D269D200204913434B641F4BDB6A1E4A9B
:1043900043F48073D3623B68002B06D11A4BDB6A6F
:1043A000194A43F48003D3620FE03B68012B06D126
:1043B000154BDB6A144A43F40003D36205E0124B49
:1043C000DB6A114A43F08073D3620F4B1B680E4ABD
:1043D00043F080531360FCF725FEB86008E0FCF75B
:1043E00021FE0246BB68D31A022B01D9032306E043
:1043F000054B1B6803F00053002BF0D0FB7B1846E5
:104400001037BD4680BD00BF004402580700FFFFC3
:1044100080B582B000AF78607B68002B01D10123AA
:1044200049E07B6893F83D30DBB2002B06D17B6816
:10443000002283F83C20786800F041F87B68022273
:1044400083F83D207B681A687B6804331946104660
:1044500000F00EFA7B68012283F848207B68012275
:1044600083F83E207B68012283F83F207B6801228D
:1044700083F840207B68012283F841207B68012279
:1044800083F842207B68012283F843207B68012265
:1044900083F844207B68012283F845207B68012251
:1044A00083F846207B68012283F847207B6801223D
:1044B00083F83D20002318460837BD4680BD80B4F0
:1044C00083B000AF786000BF0C37BD465DF8047B59
:1044D0007047000080B485B000AF78607B6893F8C7
:1044E0003D30DBB2012B01D001235EE07B6802226C
:1044F00083F83D207B681B68DA687B681B6842F0A4
:104500000102DA607B681B682B4A93422CD07B68DF
:104510001B68B3F1804F27D07B681B68274A934202
:1045200022D07B681B68264A93421DD07B681B689B
:10453000244A934218D07B681B68234A934213D0C5
:104540007B681B68214A93420ED07B681B68204A17
:10455000934209D07B681B681E4A934204D07B6853
:104560001B681D4A934215D17B681B689A681B4BD8
:104570001340FB60FB68062B15D0FB68B3F5803F4A
:1045800011D07B681B681A687B681B6842F00102C7
:104590001A6008E07B681B681A687B681B6842F039
:1045A00001021A6000E000BF002318461437BD4620
:1045B0005DF8047B704700BF00000140000400402C
:1045C00000080040000C00400004014000180040BA
:1045D0000040014000E0004000E40040070001000E
:1045E00080B582B000AF78607B681B681B6903F000
:1045F0000203022B22D17B681B68DB6803F00203F5
:10460000022B1BD17B681B686FF002021A617B686A
:1046100001221A777B681B689B6903F00303002B58
:1046200003D0786800F005F905E0786800F0F7F845
:10463000786800F008F97B6800221A777B681B68AD
:104640001B6903F00403042B22D17B681B68DB6821
:1046500003F00403042B1BD17B681B686FF004027A
:104660001A617B6802221A777B681B689B6903F4D6
:104670004073002B03D0786800F0DBF805E0786821
:1046800000F0CDF8786800F0DEF87B6800221A7739
:104690007B681B681B6903F00803082B22D17B6829
:1046A0001B68DB6803F00803082B1BD17B681B68C1
:1046B0006FF008021A617B6804221A777B681B6816
:1046C000DB6903F00303002B03D0786800F0B1F836
:1046D00005E0786800F0A3F8786800F0B4F87B682B
:1046E00000221A777B681B681B6903F01003102BEC
:1046F00022D17B681B68DB6803F01003102B1BD1F1
:104700007B681B686FF010021A617B6808221A77B9
:104710007B681B68DB6903F44073002B03D0786867
:1047200000F087F805E0786800F079F8786800F024
:104730008AF87B6800221A777B681B681B6903F084
:104740000103012B0ED17B681B68DB6803F00103BA
:10475000012B07D17B681B686FF001021A61786832
:10476000FCF7A2F97B681B681B6903F08003802BB0
:104770000ED17B681B68DB6803F08003802B07D1B8
:104780007B681B686FF080021A61786800F020F97E
:104790007B681B681B6903F48073B3F5807F0ED1BF
:1047A0007B681B68DB6803F08003802B07D17B6884
:1047B0001B686FF480721A61786800F013F97B68E7
:1047C0001B681B6903F04003402B0ED17B681B68FC
:1047D000DB6803F04003402B07D17B681B686FF058
:1047E00040021A61786800F038F87B681B681B6922
:1047F00003F02003202B0ED17B681B68DB6803F0DD
:104800002003202B07D17B681B686FF020021A6100
:10481000786800F0D3F800BF0837BD4680BD80B48B
:1048200083B000AF786000BF0C37BD465DF8047BF5
:10483000704780B483B000AF786000BF0C37BD46CE
:104840005DF8047B704780B483B000AF786000BF30
:104850000C37BD465DF8047B704780B483B000AF71
:10486000786000BF0C37BD465DF8047B70470000E0
:1048700080B485B000AF786039607B681B68FB60EE
:104880007B68444A934213D07B68B3F1804F0FD0CA
:104890007B68414A93420BD07B68404A934207D0E1
:1048A0007B683F4A934203D07B683E4A934208D1DB
:1048B000FB6823F07003FB603B685B68FA68134396
:1048C000FB607B68334A934227D07B68B3F1804F0B
:1048D00023D07B68304A93421FD07B682F4A934293
:1048E0001BD07B682E4A934217D07B682D4A934297
:1048F00013D07B682C4A93420FD07B682B4A93429B
:104900000BD07B682A4A934207D07B68294A93429E
:1049100003D07B68284A934208D1FB6823F4407394
:10492000FB603B68DB68FA681343FB60FB6823F0BD
:1049300080023B685B691343FB607B68FA681A601E
:104940003B689A687B68DA623B681A687B689A629F
:104950007B68104A93420FD07B68124A93420BD077
:104960007B68114A934207D07B68104A934203D078
:104970007B680F4A934203D13B681A697B681A63CC
:104980007B6801225A6100BF1437BD465DF8047B85
:10499000704700BF000001400004004000080040D4
:1049A000000C004000040140004001400044014070
:1049B0000048014000E0004000E4004080B483B0C3
:1049C00000AF786000BF0C37BD465DF8047B7047D0
:1049D00080B483B000AF786000BF0C37BD465DF88F
:1049E000047B704780B483B000AF786000BF0C37A1
:1049F000BD465DF8047B704780B582B000AF78603B
:104A00007B68002B01D1012342E07B68D3F884301E
:104A1000002B06D17B68002283F880207868FCF7A1
:104A200047F97B682422C3F884207B681B681A68D6
:104A30007B681B6822F001021A60786800F02CF88D
:104A40000346012B01D1012322E07B689B6A002BE6
:104A500002D0786800F08CFE7B681B685A687B681F
:104A60001B6822F490425A607B681B689A687B68D6
:104A70001B6822F02A029A607B681B681A687B68B0
:104A80001B6842F001021A60786800F013FF0346C9
:104A900018460837BD4680BD2DE9B04F92B000AF33
:104AA0007861002387F842307B699A687B691B69CB
:104AB0001A437B695B691A437B69DB6913437B6437
:104AC0007B691B681A68BE4B13407A691268796C5F
:104AD0000B4313607B691B685B6823F440517B695F
:104AE000DA687B691B680A435A607B699B697B644F
:104AF0007B691B68B34A934204D07B691B6A7A6C5A
:104B000013437B647B691B689A68AF4B13407A69D7
:104B10001268796C0B4393607B691B68DB6A23F036
:104B20000F017B695A6A7B691B680A43DA627B69F9
:104B30001B68A64A934277D1A54B5B6D03F03803FF
:104B4000282B6DD801A252F823F000BFF14B0008CA
:104B5000214C0008214C0008214C0008214C000881
:104B6000214C0008214C0008214C0008F94B00089A
:104B7000214C0008214C0008214C0008214C000861
:104B8000214C0008214C0008214C0008014C000871
:104B9000214C0008214C0008214C0008214C000841
:104BA000214C0008214C0008214C0008094C000849
:104BB000214C0008214C0008214C0008214C000821
:104BC000214C0008214C0008214C0008114C000821
:104BD000214C0008214C0008214C0008214C000801
:104BE000214C0008214C0008214C0008194C0008F9
:104BF000012387F8433026E3042387F8433022E378
:104C0000082387F843301EE3102387F843301AE364
:104C1000202387F8433016E3402387F8433012E31C
:104C2000802387F843300EE37B691B68694A93420F
:104C300030D1674B5B6D03F00703052B26D801A22B
:104C400052F823F05D4C0008654C00086D4C0008DC
:104C5000754C00087D4C0008854C0008002387F83F
:104C60004330F0E2042387F84330ECE2082387F86E
:104C70004330E8E2102387F84330E4E2202387F84A
:104C80004330E0E2402387F84330DCE2802387F8BA
:104C90004330D8E27B691B684F4A934230D14C4B7A
:104CA0005B6D03F00703052B26D801A252F823F011
:104CB000C94C0008D14C0008D94C0008E14C000850
:104CC000E94C0008F14C0008002387F84330BAE2B1
:104CD000042387F84330B6E2082387F84330B2E272
:104CE000102387F84330AEE2202387F84330AAE24E
:104CF000402387F84330A6E2802387F84330A2E2BE
:104D00007B691B68354A934230D1314B5B6D03F0B0
:104D10000703052B26D801A252F823F0354D0008D1
:104D20003D4D0008454D00084D4D0008554D00080B
:104D30005D4D0008002387F8433084E2042387F8A0
:104D4000433080E2082387F843307CE2102387F861
:104D5000433078E2202387F8433074E2402387F819
:104D6000433070E2802387F843306CE27B691B6834
:104D70001B4A934242D1164B5B6D03F00703052B90
:104D800038D801A252F823F0A14D0008A94D00081F
:104D9000B14D0008B94D0008E54D0008ED4D000883
:104DA000002387F843304EE2042387F843304AE279
:104DB000082387F8433046E2102387F8433042E265
:104DC000F369FFCF000C0058FFF4FF110010014001
:104DD000004402580044004000480040004C00409D
:104DE00000500040202387F843302CE2402387F80E
:104DF000433028E2802387F8433024E27B691B6834
:104E0000B14A934276D1B14B5B6D03F03803282B46
:104E10006CD801A252F823F0BD4E0008ED4E0008F8
:104E2000ED4E0008ED4E0008ED4E0008ED4E000876
:104E3000ED4E0008ED4E0008C54E0008ED4E00088E
:104E4000ED4E0008ED4E0008ED4E0008ED4E000856
:104E5000ED4E0008ED4E0008CD4E0008ED4E000866
:104E6000ED4E0008ED4E0008ED4E0008ED4E000836
:104E7000ED4E0008ED4E0008D54E0008ED4E00083E
:104E8000ED4E0008ED4E0008ED4E0008ED4E000816
:104E9000ED4E0008ED4E0008DD4E0008ED4E000816
:104EA000ED4E0008ED4E0008ED4E0008ED4E0008F6
:104EB000ED4E0008ED4E0008E54E0008012387F88E
:104EC0004330C0E1042387F84330BCE1082387F86E
:104ED0004330B8E1102387F84330B4E1202387F84A
:104EE0004330B0E1402387F84330ACE1802387F8BA
:104EF0004330A8E17B691B68754A934230D1734BFC
:104F00005B6D03F00703052B26D801A252F823F0AE
:104F1000294F0008314F0008394F0008414F000861
:104F2000494F0008514F0008002387F843308AE1B9
:104F3000042387F8433086E1082387F8433082E171
:104F4000102387F843307EE1202387F843307AE14D
:104F5000402387F8433076E1802387F8433072E1BD
:104F60007B691B685B4A934230D1584B5B6D03F001
:104F70000703052B26D801A252F823F0954F00080D
:104F80009D4F0008A54F0008AD4F0008B54F000821
:104F9000BD4F0008002387F8433054E1042387F80D
:104FA000433050E1082387F843304CE1102387F861
:104FB000433048E1202387F8433044E1402387F819
:104FC000433040E1802387F843303CE17B691B6834
:104FD000414A934240F082803C4B5B6D03F03803C2
:104FE000282B6DD801A252F823F000BF9150000881
:104FF000C1500008C1500008C1500008C15000084D
:10500000C1500008C1500008C15000089950000864
:10501000C1500008C1500008C1500008C15000082C
:10502000C1500008C1500008C1500008A15000083C
:10503000C1500008C1500008C1500008C15000080C
:10504000C1500008C1500008C1500008A950000814
:10505000C1500008C1500008C1500008C1500008EC
:10506000C1500008C1500008C1500008B1500008EC
:10507000C1500008C1500008C1500008C1500008CC
:10508000C1500008C1500008C1500008B9500008C4
:10509000012387F84330D6E0042387F84330D2E079
:1050A000082387F84330CEE0102387F84330CAE066
:1050B000202387F84330C6E0402387F84330C2E01E
:1050C000802387F84330BEE00014014000440258BA
:1050D00000780040007C0040001801407B691B689C
:1050E000AD4A934276D1AD4B5B6D03F03803282B6C
:1050F0006CD801A252F823F09D510008CD51000850
:10510000CD510008CD510008CD510008CD51000807
:10511000CD510008CD510008A5510008CD5100081F
:10512000CD510008CD510008CD510008CD510008E7
:10513000CD510008CD510008AD510008CD510008F7
:10514000CD510008CD510008CD510008CD510008C7
:10515000CD510008CD510008B5510008CD510008CF
:10516000CD510008CD510008CD510008CD510008A7
:10517000CD510008CD510008BD510008CD510008A7
:10518000CD510008CD510008CD510008CD51000887
:10519000CD510008CD510008C5510008012387F802
:1051A000433050E0042387F843304CE0082387F86D
:1051B000433048E0102387F8433044E0202387F849
:1051C000433040E0402387F843303CE0802387F8B9
:1051D000433038E07B691B68714A934230D16F4B92
:1051E0009B6D03F00703052B26D801A252F823F08C
:1051F00009520008115200081952000821520008F3
:105200002952000831520008022387F843301AE07F
:10521000042387F8433016E0082387F8433012E070
:10522000102387F843300EE0202387F843300AE04C
:10523000402387F8433006E0802387F8433002E0BC
:10524000802387F843307B691B68554A934240F0BE
:10525000F88097F84330202B46DC022B75DB023BAD
:105260001E2B72D801A252F823F000BFEF520008A3
:105270004B530008F75200084B5300084B530008EB
:105280004B530008075300084B5300084B530008CA
:105290004B5300084B5300084B5300084B53000876
:1052A0004B530008175300084B5300084B5300089A
:1052B0004B5300084B5300084B5300084B53000856
:1052C0004B5300084B5300084B5300084B53000846
:1052D0004B5300084B5300084B5300084B53000836
:1052E0004B5300083D530008402B2AD02DE0FEF719
:1052F0006DFCF8632FE007F124031846FEF77CFCF1
:10530000BB6AFB6327E007F118031846FEF7C8FDE8
:10531000FB69FB631FE0214B1B6803F02003002B9C
:1053200009D01E4B1B68DB0803F003031D4A22FA59
:1053300003F3FB630FE01B4BFB630CE01A4BFB63B7
:1053400009E04FF40043FB6305E00023FB63012306
:1053500087F8423000BFFB6B002B00F0EE817B69C9
:105360005B6A124A32F813301A46FB6BB3FBF2F356
:105370003B637B695A6813465B0013443A6B9A425D
:1053800005D37B695B681B033A6B9A4210D90123F2
:1053900087F84230D1E100BF001C014000440258B0
:1053A000000C00580090D00300093D002C86000836
:1053B000FB6B0022BB60FA607B695B6AC04A32F813
:1053C00013309BB200223B607A60D7E90023D7E913
:1053D0000201FAF79DFF02460B46104619464FF0B0
:1053E00000024FF000030B0243EA106302027969E6
:1053F0004968490800200C46054612EB040843EBB7
:1054000005097B695B6800229A46934652465B46D3
:1054100040464946FAF77CFF02460B461346BB63FB
:10542000BB6BB3F5407F08D3BB6BB3F5801F04D2D1
:105430007B691B68BA6BDA607FE1012387F8423031
:105440007BE17B69DB69B3F5004F40F0BD8097F8E5
:105450004330202B48DC002B7BDB202B79D801A2AA
:1054600052F823F0EF540008F75400085355000891
:1054700053550008FF5400085355000853550008C1
:10548000535500080F5500085355000853550008A0
:10549000535500085355000853550008535500084C
:1054A000535500081F550008535500085355000870
:1054B000535500085355000853550008535500082C
:1054C000535500085355000853550008535500081C
:1054D000535500085355000853550008535500080C
:1054E0005355000845550008402B2ED031E0FDF7FC
:1054F00005FCF86333E0FDF717FCF8632FE007F1D4
:1055000024031846FEF778FBBB6AFB6327E007F12C
:1055100018031846FEF7C4FCFB69FB631FE0694BE8
:105520001B6803F02003002B09D0664B1B68DB08C7
:1055300003F00303644A22FA03F3FB630FE0624BB8
:10554000FB630CE0614BFB6309E04FF40043FB633A
:1055500005E00023FB63012387F8423000BFFB6BAB
:10556000002B00F0EA807B695B6A554A32F8133001
:105570001A46FB6BB3FBF2F35A007B695B685B086E
:105580001A447B695B68B2FBF3F3BB63BB6B0F2B05
:1055900016D9BB6BB3F5803F12D2BB6B9BB223F025
:1055A0000F03FB86BB6B5B089BB203F007039AB249
:1055B000FB8E1343FB867B691B68FA8EDA60BCE0C6
:1055C000012387F84230B8E097F84330202B4BDCBA
:1055D000002BC0F28780202B00F2848001A252F8B9
:1055E00023F000BF6F56000877560008E556000804
:1055F000E55600087F560008E5560008E556000805
:10560000E55600088F560008E5560008E5560008E4
:10561000E5560008E5560008E5560008E55600087E
:10562000E55600089F560008E5560008E5560008B4
:10563000E5560008E5560008E5560008E55600085E
:10564000E5560008E5560008E5560008E55600084E
:10565000E5560008E5560008E5560008E55600083E
:10566000E5560008D7560008402B37D03AE0FDF742
:1056700045FBF8633CE0FDF757FBF86338E007F1C2
:1056800024031846FEF7B8FABB6AFB6330E007F163
:1056900018031846FEF704FCFB69FB6328E0094B7E
:1056A0001B6803F02003002B12D0064B1B68DB089D
:1056B00003F00303044A22FA03F3FB6318E000BF7C
:1056C0002C860008004402580090D00300093D00D9
:1056D000244BFB630CE0244BFB6309E04FF40043D5
:1056E000FB6305E00023FB63012387F8423000BF22
:1056F000FB6B002B21D07B695B6A1C4A32F81330AC
:105700001A46FB6BB3FBF2F27B695B685B081A44D9
:105710007B695B68B2FBF3F3BB63BB6B0F2B09D9EF
:10572000BB6BB3F5803F05D2BB6B9AB27B691B683C
:10573000DA6002E0012387F842307B690122A3F896
:105740006A207B690122A3F868207B6900221A671E
:105750007B6900225A6797F8423018464837BD46A1
:10576000BDE8B08F0090D00300093D002C860008F2
:1057700080B483B000AF78607B689B6A03F001035C
:10578000002B0AD07B681B685B6823F400317B68C0
:10579000DA6A7B681B680A435A607B689B6A03F07D
:1057A0000203002B0AD07B681B685B6823F48031FE
:1057B0007B681A6B7B681B680A435A607B689B6A2C
:1057C00003F00403002B0AD07B681B685B6823F49A
:1057D00080217B685A6B7B681B680A435A607B6830
:1057E0009B6A03F00803002B0AD07B681B685B6888
:1057F00023F400417B689A6B7B681B680A435A60FC
:105800007B689B6A03F01003002B0AD07B681B683F
:105810009B6823F480517B68DA6B7B681B680A43C2
:105820009A607B689B6A03F02003002B0AD07B6898
:105830001B689B6823F400517B681A6C7B681B68AB
:105840000A439A607B689B6A03F04003002B1AD0DE
:105850007B681B685B6823F480117B685A6C7B68EB
:105860001B680A435A607B685B6CB3F5801F0AD1E2
:105870007B681B685B6823F4C0017B689A6C7B685B
:105880001B680A435A607B689B6A03F08003002B05
:105890000AD07B681B685B6823F400217B68DA6CA4
:1058A0007B681B680A435A6000BF0C37BD465DF831
:1058B000047B704780B586B002AF78607B680022B9
:1058C000C3F88C20FBF7AEFBF8607B681B681B6895
:1058D00003F00803082B0ED16FF07E430093FB68A2
:1058E00000224FF40011786800F02FF80346002BD7
:1058F00001D0032325E07B681B681B6803F00403C9
:10590000042B0ED16FF07E430093FB6800224FF40E
:105910008001786800F019F80346002B01D00323BA
:105920000FE07B682022C3F884207B682022C3F824
:1059300088207B680022DA667B68002283F880205A
:10594000002318461037BD4680BD80B59CB000AF1F
:10595000F860B9603B601346FB71A9E0BB6FB3F11F
:10596000FF3F00F0A580FBF75DFB02463B68D31AC2
:10597000BA6F9A4202D3BB6F002B40D1FB681B6801
:105980003B653B6D53E8003FFB64FB6C23F4D07335
:105990007B66FB681B681A467B6EFB65BA65B96D52
:1059A000FA6D41E800237B657B6D002BE6D1FB6837
:1059B0001B680833FB63FB6B53E8003FBB63BB6BA7
:1059C00023F001033B66FB681B6808333A6EBA6438
:1059D0007B64796CBA6C41E800233B643B6C002B20
:1059E000E5D1FB682022C3F88420FB682022C3F89D
:1059F0008820FB68002283F88020032369E0FB688D
:105A00001B681B6803F00403002B51D0FB681B6864
:105A1000DB6903F40063B3F5006F49D1FB681B68D1
:105A20004FF400621A62FB681B68BB62BB6A53E8F2
:105A3000003F7B627B6A23F4D073FB66FB681B68C4
:105A40001A46FB6E7B633A63396B7A6B41E800233D
:105A5000FB62FB6A002BE6D1FB681B6808337B61A5
:105A60007B6953E8003F3B613B6923F00103BB6660
:105A7000FB681B680833BA6E3A62FB61F9693A6ADF
:105A800041E80023BB61BB69002BE5D1FB68202204
:105A9000C3F88420FB682022C3F88820FB682022FA
:105AA000C3F88C20FB68002283F88020032310E0D9
:105AB000FB681B68DA69BB681340BA689A420CBF7E
:105AC00001230023DBB21A46FB799A423FF446AF2A
:105AD000002318467037BD4680BD80B485B000AF46
