:020000040800F2
:1000000000000220055A0008610C0008650C000879
:10001000690C00086D0C0008710C0008000000005D
:10002000000000000000000000000000B13E0008D9
:10003000750C000800000000413F0008093C000862
:10004000555A0008555A0008555A0008555A0008D4
:10005000555A0008555A0008555A0008555A0008C4
:10006000555A0008555A0008555A0008555A0008B4
:10007000555A0008555A0008555A0008555A0008A4
:10008000555A0008555A0008555A0008555A000894
:10009000555A0008555A0008555A0008555A000884
:1000A000555A0008555A0008555A0008555A000874
:1000B000555A0008555A0008555A0008555A000864
:1000C000555A0008555A0008555A0008555A000854
:1000D000555A0008555A0008555A0008555A000844
:1000E000555A0008555A000800000000555A0008EB
:1000F000555A0008555A0008555A0008555A000824
:10010000555A0008555A0008790C0008555A00083D
:10011000555A0008555A0008555A0008555A000803
:10012000555A0008555A0008555A0008555A0008F3
:10013000555A0008555A0008555A0008555A0008E3
:1001400000000000000000000000000000000000AF
:10015000555A0008555A0008555A0008555A0008C3
:10016000555A0008555A0008555A0008555A0008B3
:10017000555A0008555A0008555A0008000000005A
:10018000555A0008555A0008555A0008555A000893
:10019000555A0008555A0008555A0008555A000883
:1001A000555A0008555A0008555A0008000000002A
:1001B000555A0008555A0008555A0008555A000863
:1001C000555A0008555A00080000000000000000C1
:1001D0000000000000000000555A00080000000068
:1001E000000000000000000000000000000000000F
:1001F0000000000000000000555A0008555A000891
:10020000555A0008555A000800000000555A0008C9
:10021000555A0008555A0008555A0008555A000802
:10022000555A000800000000555A00080000000060
:10023000555A0008555A000800000000555A000899
:10024000555A0008555A0008555A0008555A0008D2
:10025000555A0008555A0008555A0008555A0008C2
:10026000555A0008555A0008555A0008555A0008B2
:10027000555A0008555A0008555A00080000000059
:10028000555A0008555A0008555A0008555A000892
:1002900000000000555A0008555A000800000000F0
:1002A00000000000555A0008555A0008555A000829
:1002B000555A0008555A0008555A0008555A000862
:0C02C000555A0008555A0008555A00080D
:1002D00010B5054C237833B9044B13B10448AFF380
:1002E00000800123237010BDD80000200000000012
:1002F000CC5A000808B5034B1BB103490348AFF3C0
:10030000008008BD00000000DC000020CC5A00087E
:1003100053B94AB9002908BF00281CBF4FF0FF316C
:100320004FF0FF3000F074B9ADF1080C6DE904CE68
:1003300000F006F8DDF804E0DDE9022304B07047C0
:100340002DE9F047089D04468E46002B4DD18A4288
:10035000944669D9B2FA82F252B101FA02F3C2F1BB
:10036000200120FA01F10CFA02FC41EA030E94404C
:100370004FEA1C48210CBEFBF8F61FFA8CF708FB6D
:1003800016E341EA034306FB07F199420AD91CEB45
:10039000030306F1FF3080F01F81994240F21C8177
:1003A000023E63445B1AA4B2B3FBF8F008FB1033BF
:1003B00044EA034400FB07F7A7420AD91CEB0404F4
:1003C00000F1FF3380F00A81A74240F207816444C4
:1003D000023840EA0640E41B00261DB1D440002349
:1003E000C5E900433146BDE8F0878B4209D9002DAD
:1003F00000F0EF800026C5E9000130463146BDE837
:10040000F087B3FA83F6002E4AD18B4202D38242A0
:1004100000F2F980841A61EB030301209E46002D4F
:10042000E0D0C5E9004EDDE702B9FFDEB2FA82F2A4
:10043000002A40F09280A1EB0C014FEA1C471FFA02
:100440008CFE0126200CB1FBF7F307FB131140EAE9
:1004500001410EFB03F0884208D91CEB010103F1B6
:10046000FF3802D2884200F2CB804346091AA4B278
:10047000B1FBF7F007FB101144EA01440EFB00FE4C
:10048000A64508D91CEB040400F1FF3102D2A645B1
:1004900000F2BB800846A4EB0E0440EA03409CE750
:1004A000C6F12007B34022FA07FC4CEA030C20FAFD
:1004B00007F401FA06F31C43F9404FEA1C4900FA1D
:1004C00006F3B1FBF9F8200C1FFA8CFE09FB18119A
:1004D00040EA014108FB0EF0884202FA06F20BD90D
:1004E0001CEB010108F1FF3A80F08880884240F25D
:1004F0008580A8F102086144091AA4B2B1FBF9F0A1
:1005000009FB101144EA014100FB0EFE8E4508D99B
:100510001CEB010100F1FF346CD28E456AD9023820
:10052000614440EA0840A0FB0294A1EB0E01A14205
:10053000C846A64656D353D05DB1B3EB080261EB73
:100540000E0101FA07F722FA06F3F1401F43C5E94D
:10055000007100263146BDE8F087C2F12003D84083
:100560000CFA02FC21FA03F3914001434FEA1C47C5
:100570001FFA8CFEB3FBF7F007FB10360B0C43EAB7
:10058000064300FB0EF69E4204FA02F408D91CEB67
:10059000030300F1FF382FD29E422DD90238634465
:1005A0009B1B89B2B3FBF7F607FB163341EA034105
:1005B00006FB0EF38B4208D91CEB010106F1FF3854
:1005C00016D28B4214D9023E6144C91A46EA00464B
:1005D00038E72E46284605E70646E3E61846F8E6DD
:1005E0004B45A9D2B9EB020864EB0C0E0138A3E726
:1005F0004646EAE7204694E74046D1E7D0467BE707
:10060000023B614432E7304609E76444023842E77E
:10061000704700BF08B5012003F07AFBFBE700BF7D
:1006200000B59FB04C2200210AA805F047FA20220D
:10063000002102A805F042FA022000F0E9FE284A53
:1006400000230193936923F440439361936903F476
:1006500040430193019B93699B04FCD50121042332
:1006600002220AA810911791002115931C919FED69
:10067000167BCDE91832CDE91A3140F213138DED16
:100680000A7BCDE91322169300F07EFF08B172B603
:10069000FEE79FED0F7B0022082302A803218DEDCA
:1006A000027B9FED0D7BCDE904234FF48062402354
:1006B0008DED067BCDE9082301F090FA08B172B602
:1006C000FEE71FB05DF804FB2100000000000500FC
:1006D0003F00000003000000400000004000000058
:1006E0000048025880B58EB0002400F021FB00269F
:1006F000FFF796FF914B0C94224644F2010100272C
:10070000CDE90844CDE90A44D3F8E00040F0040004
:10071000C3F8E000D3F8E00000F004000190019875
:10072000D3F8E00040F08000C3F8E000D3F8E00028
:1007300000F0800002900298D3F8E00040F0010041
:10074000C3F8E000D3F8E00000F001000390039844
:10075000D3F8E00040F00200C3F8E000D3F8E00076
:1007600000F0020004900498D3F8E00040F0080084
:10077000C3F8E000D3F8E00000F008000590059809
:10078000D3F8E00040F04000C3F8E000D3F8E00008
:1007900000F0400006900698D3F8E00040F010000A
:1007A000C3F8E000D3F8E030654803F01003079386
:1007B000079B00F01FFE22464FF48061614800F065
:1007C00019FE22460221604800F014FE4FF4005248
:1007D000002308A95D480A94CDE9082300F0DCFC59
:1007E00044F20102012308A95548CDE90823CDE9C7
:1007F0000A6700F0D1FC4FF48062012308A9514838
:10080000CDE90823CDE90A6700F0C6FC80224FF449
:10081000881308A94E480A94CDE9082300F0BCFCCF
:100820004FF40072002308A94A480A94CDE908232E
:1008300000F0B2FC4FF48062022308A94548CDE9DC
:1008400008230A23CDE90A670C9300F0A5FC0222D5
:10085000012308A93C48CDE90823CDE90A6700F047
:100860009BFC3D483D4B3E493E4A9C8001241A601A
:1008700001603D4A3D49436040F2F45304724361D4
:10088000C0E9031200F010FB08B172B6FEE7384F62
:10089000044601463422381D364E05F00FF9212258
:1008A0004FF4403334493A604FF4E1327B610C231A
:1008B00030463461C6E90244C6E90012C6E905348F
:1008C000C6E90744C6E9094403F090F808B172B6D6
:1008D000FEE70146304603F013F9014608B172B64F
:1008E000FEE7304603F04EF908B172B6FEE7304637
:1008F00003F0E8F8044608B172B6FEE703F092F997
:1009000021461E4A1E4803F0B9F91E4B0C4E0E4CF0
:10091000186003F099F94FF48041304600F06EFD05
:100920004FF47A7000F046FA2046022100F066FD8E
:100930004FF47A7000F03EFAEDE700BF0044025831
:1009400000040258000C0258001002580008025817
:10095000001802580000025838010020F40000205E
:10096000008002400080E10014000020740000209C
:10097000FC000020E801002000480040F05A000878
:100980001506000834010020034B02689A4200D08B
:10099000704700F0FDB900BF000C004072B6FEE7E2
:1009A0000B4B00220F216FF0010010B4D3F8F4407C
:1009B00083B044F00204C3F8F440D3F8F43003F0F9
:1009C00002030193019B03B05DF8044B00F020BAD1
:1009D00000440258494A00230168D0B591428EB0C4
:1009E000CDE90833CDE90A330C9301D00EB0D0BD68
:1009F000434B322002210B24D3F8D82000260027B5
:100A000042F40042C3F8D820D3F8D82002F40042C0
:100A10000192019AD3F8D82042F48032C3F8D8204A
:100A2000D3F8D82002F480320292029AD3F8D82068
:100A300042F40032C3F8D820D3F8D82002F40032B0
:100A40000392039AD3F8E02042F00402C3F8E020B6
:100A5000D3F8E02002F004020492049AD3F8E020D4
:100A600042F00102C3F8E020D3F8E02002F00102D6
:100A70000592059AD3F8E02042F00202C3F8E02084
:100A8000D3F8E02002F002020692069AD3F8E020A2
:100A900042F04002C3F8E020D3F8E0300C9403F0B9
:100AA0004003CDE90801079308A91648079B00F009
:100AB00073FB8622022308A913480C94CDE908236E
:100AC000CDE90A6700F068FB4FF40052022308A941
:100AD0000E480C94CDE90823CDE90A6700F05CFBD1
:100AE0004FF42052022308A909480C94CDE90A6763
:100AF000CDE9082300F050FB0EB0D0BD00800240CD
:100B0000004402580008025800000258000402582D
:100B1000001802580000000010B5B4B000210446CF
:100B2000B42207A80691CDE90211CDE9041104F021
:100B3000C5FF214B22689A4201D034B010BD022378
:100B400007A8079301F062FB40BB1C4B072402A9D6
:100B50001B48D3F8E82042F48022C3F8E820D3F8F9
:100B6000E82002F480220092009AD3F8E02042F0BC
:100B70000802C3F8E020D3F8E030069403F008033D
:100B80009FED097B0193019B8DED027B9FED087B1F
:100B90008DED047B00F000FB34B010BDFFF7FEFECE
:100BA000D3E700BFAFF300800003000002000000A5
:100BB000000000000000000000480040004402580F
:100BC000000C02580F2801D90120704710B50146CA
:100BD0008AB000220446322000F01AF9322000F0D8
:100BE00055F91A4B1A4A694602A81460D3F8E8204E
:100BF00042F00802C3F8E820D3F8E83003F0080315
:100C00000193019B01F0E2F9079BBBB901F04EF99A
:100C1000104B0022104CA3FB000310492046A26099
:100C20009B0C216040F2E731013BC4E90312636091
:100C300002F086F930B101200AB010BD01F036F99A
:100C40004000E5E7204602F03DFAF5E7004402588F
:100C50000C00002083DE1B4378020020000C0040C3
:100C6000FEE700BFFEE700BFFEE700BFFEE700BFF4
:100C7000FEE700BF704700BF014802F093BA00BF13
:100C8000780200202249234AD1F8883043F47003C7
:100C900010B4C1F88830136803F00F03062B05D891
:100CA000136823F00F0343F0070313601A4B00246B
:100CB0001A4A1968174841F0010119601C61196846
:100CC0000A401A6003681B0705D5036823F00F0369
:100CD00043F007030360104B00221149114C1248E6
:100CE0009A61DA611A629C6243F2D204D862196393
:100CF0005A639963DA6319645A6419680B4821F4DA
:100D0000802119601A6604605DF8044B704700BFCB
:100D100000ED00E000200052004402587FEDF6EAAA
:100D200080020101000202020000FF0100400052A7
:100D300010B50320124C00F059F800F0AFFE114B33
:100D400011499A699B69C2F3032203F00F038A5C7D
:100D5000CB5C02F01F020D4903F01F03D04020FAC4
:100D600003F308600F202360FFF72CFF10B101246C
:100D7000204610BD0446FFF713FE204610BD00BFFD
:100D80000400002000440258145B0008000000200A
:100D9000034A044B11681B780B441360704700BF73
:100DA000C402002008000020014B1868704700BFF3
:100DB000C402002038B50446FFF7F6FF0546631C61
:100DC00002D0044B1B781C44FFF7EEFF431BA342E9
:100DD000FAD338BD08000020034A536823F46003A7
:100DE00018435060704700BF0004005806494FF692
:100DF000FF0C0002054BCA6800F4E06002EA0C0236
:100E000010430343CB60704700ED00E00000FA059B
:100E10001B4BDB68C3F3022300B5C3F1070E03F1DC
:100E2000040CBEF1040F28BF4FF0040EBCF1060FF6
:100E30001AD9033B4FF0FF3C0CFA03FC22EA0C02E8
:100E40004FF0FF3C00280CFA0EFC21EA0C0101FADD
:100E500003F141EA02010ADB09010A4BC9B203446A
:100E600083F800135DF804FB00221346E8E700F066
:100E70000F000901044BC9B2034419765DF804FB65
:100E800000ED00E000E100E0FCEC00E0002807DB02
:100E9000012300F01F01034A40098B4042F8203033
:100EA000704700BF00E100E0002800F04181D0F869
:100EB0008430F0B5044683B0002B00F01B81A14BB9
:100EC000D3F8F42042F00202C3F8F420D3F8F4304F
:100ED000207A03F002030193019B002840F0FE807A
:100EE000FFF77AFF2368984A03F5805352681A681F
:100EF00042F001021A60FFF757FF054606E0FFF7D0
:100F000053FF431BB3F5FA7F00F2EB80236803F530
:100F100080521268D207F2D4D3F8005200F086FF54
:100F20008A4B8B4A25F470650344934280F0E88035
:100F300045F400752368C3F8005200F077FF854B35
:100F40002168A3FB0003844A844D9B0C013BC1F83C
:100F5000DC3008681040824A024301F580500A6084
:100F60004B68804A2B404FF60D7543F4C3634B60CA
:100F7000CB681A40CA600B6F7B4A2B4065690B67D0
:100F8000D1F8903023F00303C1F89030D1F8003D40
:100F900023F0720343F00203C1F8003DD1F8303D65
:100FA00023F07B0343F02003C1F8303D03681A406F
:100FB0006E4B02604268134041F201021A436C4BCF
:100FC0004260D0F8002113406A4A43F40673C0F827
:100FD0000031D0F804311A40674B42F40012C0F8D7
:100FE0000421D0F80821134043F40013C0F808315D
:100FF000D0F8003123F4E01343F40023C0F80031AB
:1010000015F0030340F09680D0F8086103275B4A8F
:10101000324042EA4502E56805F11806C0F80821A9
:1010200022692B606B6002F1180CAB60EB60A5616C
:10103000AB61EB612B626B62E66105F130062B63FD
:101040006B63AB63EB63266205F14806AB64EB644C
:101050002B656B65666202F14806A362C0F82C71CD
:10106000C0F81451C0F82051136053609360D360EE
:10107000C2E90433A264656893619362D361D36269
:1010800013625362C4F84CC002F1300C1363136452
:10109000536353649363D363C4F850C093649365FC
:1010A000D364D365136553656665A365C4E91733D7
:1010B000C4E91A33C0F83071C0F81C21C0F82861A7
:1010C000AA88C1F8002310222868C1F80403184632
:1010D000C4F88830C4F8842003B0F0BD4FF4000099
:1010E000FEE60422E0230120C4F88820C4F88430FE
:1010F00003B0F0BD2323C0F88430FFF76BFCDEE6BD
:101100001F4B204A034493420FD91F4B1F4A0344ED
:101110009342FFF40FAF1E4B1E4A0344934294BF09
:1011200045F4807545F4806504E745F4407501E7B2
:10113000012070470120E023C4F88800C4F88430FF
:1011400003B0F0BD004402580004005800D3CEFEA6
:10115000C0E1E40083DE1B43838004000080F8C00C
:1011600000603038F0FEFFFFFD87FFFFFE2FFFFF1E
:1011700000C0FEFFEFEFC0FFFFFFC07F0180FFFF59
:1011800040F1E9FD3F787D0100796CFC005A620274
:10119000001F0AFA7FF0FA022DE9F04F0C6883B0C5
:1011A000002C00F0A2804FF0000C894F6346012212
:1011B0009A4012EA040E00F091804D6805F0030990
:1011C00009F1FF36012E40F29380B9F1030F40F090
:1011D000CD8009FA0CF26FEA0208066815F4403F68
:1011E00006EA080842EA0802026077D0D7F8F4203D
:1011F00023F0030803F0030942F0020208F1B048AB
:101200004FEA8909C7F8F42008F58068D7F8F42078
:1012100002F002020192019A0F22D8F8086002FA45
:1012200009F226EA02026B4EB04225D006F580662E
:10123000B04200F0A880684EB04200F0AA80674E2D
:10124000B04200F09A80664EB04200F0AE80654E2B
:10125000B04200F0B080644EB04200F0A080634E17
:10126000B04200F0AE80624EB0420CBF09260A26A2
:1012700006FA09F942EA0902C8F808204FF0B0421C
:10128000EE026FEA0E0812684FF0B04654BF08EA4B
:1012900002024EEA02023260AA0276684FF0B042C1
:1012A00054BF08EA06064EEA06065660D2F8846085
:1012B000AA034FF0B04254BF08EA06064EEA0606FB
:1012C000ED034FF0B045C2F88460D2F8802054BFDF
:1012D00008EA02024EEA0202C5F8802001330CF14E
:1012E000020C34FA03F27FF462AF03B0BDE8F08F72
:1012F0004FF00308866808FA0CF826EA080ACE6858
:101300006FEA080806FA0CF646EA0A068660C5F394
:101310000016D0F804A09E402AEA0202324342603E
:10132000C268B9F1020F8E6802EA080206FA0CF6EA
:1013300046EA020609FA0CF2C6607FF44EAF03F0EB
:1013400007064FEAD3094FEA860B0F2600EB8909FF
:1013500006FA0BF6D9F820A02AEA060A0E6906FA60
:101360000BF646EA0A06C9F8206036E74FF0030894
:1013700008FA0CF86FEA0808D2E7032606FA09F91A
:1013800042EA090278E7012606FA09F942EA090267
:1013900072E7022606FA09F942EA09026CE7062614
:1013A00006FA09F942EA090266E7042606FA09F98B
:1013B00042EA090260E7052606FA09F942EA09024B
:1013C0005AE7072606FA09F942EA090254E700BF7C
:1013D000004402580000025800080258000C02584D
:1013E000001002580014025800180258001C02583D
:1013F0000024025802B9090481617047436901EA77
:10140000030221EA030141EA02418161704700BF02
:1014100038B5104CE36813F0040FE36805D103F00E
:101420000703181A18BF012038BD23F0070318431B
:10143000E060FFF7B9FC054605E0FFF7B5FC401B8F
:10144000B0F57A7F04D863689B04F6D5002038BDD8
:10145000012038BD00480258454B30B49A6A9C6A56
:10146000DD6A14F47C7F596BC4F3051038D0C1F3E6
:10147000CC0105F0010502F0030205FB01F1012A90
:1014800007EE901AB8EEE77A02D0022A4ED04AB39D
:1014900007EE900ADFED376AF8EEE77A1B6B86EE0F
:1014A000A76A9FED355AC3F3080306EE903AF7EEAC
:1014B000005AF8EEE66AE7EE056A76EEA56A66EE91
:1014C000266A2B4B1B6BC3F34623013307EE903A7E
:1014D000B8EEE77AC6EE877AFCEEE77A17EE900A66
:1014E00030BC70471A68920627D5196807EE900A33
:1014F000224AF7EE005A1B6BC1F3C101F8EEE77AFE
:101500009FED1D5AC3F30803CA4006EE903A06EE5B
:10151000102AF8EEE66AB8EEC66AE7EE056A86EECD
:10152000277A76EEA56A66EE876ACAE707EE900A22
:10153000DFED136AF8EEE77AB0E707EE900A9FED69
:10154000115A1B6BB7EE006AF8EEE77ADFED0A5A24
:10155000C3F30803C5EE276A07EE903AF8EEE77A80
:10156000E7EE257A77EE867A66EEA76AA9E700BFEE
:10157000004402580024744A000000390090D0034F
:101580000024F44A0024744C002800F0BD81F8B512
:1015900003680446D9072ED593490A69896A02F07F
:1015A0003802102A00F0F080182A00F0E880636802
:1015B000B3F5803F00F00881002B00F04681B3F5C1
:1015C000A02F894B1A6800F0348222F480321A600E
:1015D0001A6822F480221A60FFF7E6FB824E054665
:1015E00005E0FFF7E1FB401B642800F22C81336823
:1015F0009B03F6D523689D077ED4D90628D57A4962
:101600000A69896A02F03802082A00F0CD80182A97
:1016100000F0C580E369744D002B00F04E812B680B
:1016200043F080032B60FFF7BFFB064605E0FFF7A2
:10163000BBFB801B022800F206812B68DB05F6D578
:10164000EB68226A23F07C5343EA0263EB60236871
:101650001D0716D56369644D002B00F00C816B6F7C
:1016600043F001036B67FFF79FFB064605E0FFF7BA
:101670009BFB801B022800F2E6806B6F9807F6D573
:1016800023689A0616D5A369574D002B00F00481F4
:101690002B6843F480532B60FFF786FB064605E07A
:1016A000FFF782FB801B022800F2CD802B689F048D
:1016B000F6D52368590700F18D80606AD0B14A4D94
:1016C0002B6903F03803182B00F085812B68022862
:1016D00023F080732B6000F01981FFF765FB04464F
:1016E00005E0FFF761FB001B022800F2AC802B68CD
:1016F0009B01F6D40020F8BD3B4A1369926A13F0AF
:10170000380322D1384BE2681B68590701D5002AFB
:1017100043D0354D2B6823F0190313432B60FFF79B
:1017200043FB064605E0FFF73FFB801B022800F263
:101730008A802B685B07F6D56B68226923F0FE432D
:1017400043EA02636B60236857E7182B00F0D880E8
:10175000254DE2682B68002A00F0C18023F01903B0
:1017600013432B60FFF720FB064604E0FFF71CFB4A
:10177000801B022867D82B685F07F7D5DCE701F0EC
:10178000030102297FF413AF174A126892037FF511
:1017900032AF6268002A7FF42EAF0120F8BD01F05D
:1017A000030101297FF436AF0F4A1268D20502D532
:1017B000E269802AF1D10C49206ACA6822F07C5281
:1017C00042EA0062CA6043E7074A136843F4803381
:1017D000136001E7054D2B6843F480732B60FFF71E
:1017E000E3FA064609E000BF0044025800480258E8
:1017F000FFF7DAFA801B642825D82B68DA05F7D5BD
:10180000A368012B00F03681002B00F01A81052B14
:101810009F4B1A6F00F0348122F001021A671A6F91
:1018200022F004021A67FFF7BFFA994E41F2883797
:10183000054604E0FFF7B8FA401BB84203D8336FFF
:101840009B07F7D539E70320F8BD914D2B6823F4AA
:1018500080332B602B6823F480232B60FFF7A4FADE
:10186000064604E0FFF7A0FA801B6428EBD82B683B
:101870009F03F7D4BEE66B6F23F001036B67FFF79E
:1018800093FA064604E0FFF78FFA801B0228DAD8A5
:101890006B6F9907F7D4F3E62B6823F480532B6022
:1018A000FFF782FA064604E0FFF77EFA801B022863
:1018B000C9D82B689804F7D4FBE62B6823F0800383
:1018C0002B60FFF771FA064604E0FFF76DFA801B04
:1018D0000228B8D82B68DF05F7D42368B8E623F0D0
:1018E00001032B60FFF760FA064604E0FFF75CFA9D
:1018F000801B0228A7D82B685807F7D423687CE6FA
:1019000090077FF425AFFDE601207047FFF74CFA02
:10191000064604E0FFF748FA801B022893D82B689C
:101920009901F7D4A96A5B4BA26A0B405A49584EF9
:101930001343E26A43EA0213AB62D4E90D32013B7E
:10194000013A5B0212049BB202F4FE021343226BC3
:10195000013AC2F308021343E26B013A120602F0A5
:10196000FE4213432B63EB6A23F00103EB626A6BC5
:10197000A36C114041EAC3016963EB6A226C23F056
:101980000C031343EB62EB6A626C23F00203134314
:10199000EB62EB6A43F48033EB62EB6A43F40033AF
:1019A000EB62EB6A43F48023EB62EB6A43F00103E2
:1019B000EB622B6843F080732B60FFF7F5F9044668
:1019C00005E0FFF7F1F9001B02283FF63CAF336852
:1019D0009A01F6D58EE60128AA6A2D6B3FF48BAEEC
:1019E00002F00303A16A8B427FF4D7AEC2F3051263
:1019F000E36A9A427FF4D1AE236BC5F30802013B40
:101A00009A427FF4CAAE636BC5F34622013B9A4209
:101A10007FF4C3AEA36BC5F30642013B9A427FF449
:101A2000BCAEE06BC5F306650138281A18BF01206B
:101A3000F8BD42F480221A601A6842F480321A60BB
:101A4000CAE5134D41F288372B6F23F001032B6752
:101A50002B6F23F004032B67FFF7A6F9064605E07A
:101A6000FFF7A2F9801BB8423FF6EDAE2B6F980747
:101A7000F6D422E6064A136F43F001031367D2E659
:101A800042F004021A671A6F42F001021A67CAE6AE
:101A9000004402580CFCFFFF0700FFFF474A136990
:101AA00003F03803102B04D0182B0DD01BB1444881
:101AB000704744487047136899064AD513684248EE
:101AC000C3F3C103D8407047936A30B4946AD56AAF
:101AD00014F47C7F516BC4F3051038D0C1F3CC01F2
:101AE00005F0010503F0030305FB01F1012B07EEEF
:101AF000901AB8EEE77A02D0022B2CD093B307EEFF
:101B0000900A9FED325AF8EEE77A136BC5EE276A1A
:101B1000DFED2F5AC3F3080307EE903AB7EE006AE1
:101B2000F8EEE77AE7EE257A77EE867A66EEA76A30
:101B3000224B1B6BC3F34623013307EE903AB8EEFA
:101B4000E77AC6EE877AFCEEE77A17EE900A30BCA9
:101B500070471D48704707EE900A9FED1E5AF8EE39
:101B6000E77AD2E713689B0620D5146807EE900A3F
:101B70001549F7EE005A136BC4F3C104F8EEE77A87
:101B80009FED135AC3F30803E14006EE903A06EEC8
:101B9000101AF8EEE66AB8EEC66AE7EE056A86EE57
:101BA000277A76EEA56A66EE876AC1E707EE900AA5
:101BB0009FED095AF8EEE77AA7E700BF0044025804
:101BC00000093D0000127A000090D0030024744AFE
:101BD000000000390024F44A0024744C002800F06E
:101BE0000C818C4A136803F00F038B422DE9F041FE
:101BF00004460D460CD2136823F00F030B43136009
:101C0000136803F00F038B4202D00120BDE8F0817E
:101C100023685F070BD5804920698A6902F070024A
:101C2000904204D98A6922F0700202438A611E0739
:101C30000BD579496069CA6902F07002904204D9F3
:101C4000CA6922F070020243CA61D8060BD57249F4
:101C5000A069CA6902F4E062904204D9CA6922F418
:101C6000E0620243CA6199060BD56B49E0690A6AD2
:101C700002F07002904204D90A6A22F07002024314
:101C80000A629A0740F1AB806348E168826902F01A
:101C90000F02914204D9826922F00F020A43826145
:101CA000D80730D55C4AA168936923F470630B436D
:101CB000936161681368022900F0A180032900F094
:101CC0009880012900F0A18058079ED5524E41F21C
:101CD0008838336923F007030B433361FFF764F857
:101CE000074605E0FFF760F8C01B404500F28B8017
:101CF0003369626803F03803B3EBC20FF2D1236893
:101D0000990706D5E1684448826902F00F028A42C9
:101D100069D840490A6802F00F02AA420AD90A6843
:101D200022F00F022A430A600A6802F00F02AA4258
:101D30007FF46BAF5A070BD5374920698A6902F0E7
:101D40007002904204D28A6922F0700202438A61D2
:101D50001F070BD530496069CA6902F070029042D2
:101D600004D2CA6922F070020243CA61DE060BD5B2
:101D70002949A069CA6902F4E062904204D2CA69A2
:101D800022F4E0620243CA619D060BD5224AE16952
:101D9000136A03F07003994204D2136A23F07003AC
:101DA0000B431362FFF77AFE1B4A03461B489169F7
:101DB0009269C1F303211A4D02F00F02194C415CE4
:101DC000825C01F01F01184802F01F02CB4000683E
:101DD0002B60D3402360BDE8F041FEF7F3BEDA0785
:101DE0003FF560AF95E7826922F00F0211438161F0
:101DF0008FE79F013FF56AAF07E7012070479B031C
:101E00003FF564AF01E7032000E7DE053FF55EAF75
:101E1000FBE600BF0020005200440258145B00089B
:101E200000000020040000200C000020184A38B5F3
:101E3000136903F03803102B1AD0182B23D0CBB121
:101E40001448134B14499A699B69C2F30322134C3B
:101E500003F00F03124D8A5CCB5C02F01F0220FAE4
:101E600002F203F01F0022FA00F02A60206038BD61
:101E70000C48E6E713689B0608D512680A48C2F3C7
:101E8000C102D040DDE7FFF7E7FADAE70648D8E716
:101E90000044025800093D00145B000804000020C3
:101EA0000000002000127A000090D0031C4A38B5D0
:101EB000136903F03803102B21D0182B2BD003B358
:101EC0001848174A18499369184DC3F30323184C4F
:101ED000CB5C03F01F0320FA03F3906900F00F00BE
:101EE0002B60085C00F01F00C3402360D269C2F37E
:101EF0000212885C00F01F0023FA00F038BD0D4884
:101F0000DFE713689B0609D510680B4BC0F3C100CF
:101F100023FA00F0D5E7FFF79FFAD2E70648D0E7AB
:101F20000044025800093D00145B00080000002036
:101F30000400002000127A000090D0031C4A38B53B
:101F4000136903F03803102B21D0182B2BD003B3C7
:101F50001848174A18499369184DC3F30323184CBE
:101F6000CB5C03F01F0320FA03F3906900F00F002D
:101F70002B60085C00F01F00C3402360D269C2F3ED
:101F80000222885C00F01F0023FA00F038BD0D48E3
:101F9000DFE713689B0609D510680B4BC0F3C1003F
:101FA00023FA00F0D5E7FFF757FAD2E70648D0E763
:101FB0000044025800093D00145B000800000020A6
:101FC0000400002000127A000090D003134B3F223F
:101FD00002601A6902F0070242609A6902F47062B4
:101FE00082609A6902F00F02C2609A6902F0700280
:101FF0000261DA6902F070024261DA6902F4E062B9
:1020000082611B6A10B403F07003054CC36123683E
:102010005DF8044B03F00F030B6070470044025857
:1020200000200052F8B53A4CA36A03F00303032BD7
:1020300067D0236806460F4623F080632360FEF7CF
:10204000B3FE054604E0FEF7AFFE431B022B56D855
:1020500023681A01F7D4A36A326823F47C3343EA75
:102060000233A362D6E90232013B013A5B02120459
:102070009BB202F4FE0213437268013AC2F30802F3
:1020800013433269013A120602F0FE421343A3637E
:10209000E36A726923F0C0031343E362E26AB3693F
:1020A00022F020021A431B4BE262E26A22F0100285
:1020B000E262E16BF2690B4043EAC203E363E36A65
:1020C00043F01003E362E36AEFB1012F0CBF43F466
:1020D000801343F40013E3620D4C236843F08063E4
:1020E0002360FEF761FE054604E0FEF75DFE401B3F
:1020F000022804D823681B01F7D50020F8BD03206F
:10210000F8BD0120F8BD43F40023E362E4E700BF1B
:10211000004402580700FFFFF8B53A4CA36A03F0E9
:102120000303032B67D0236806460F4623F0805332
:102130002360FEF739FE054604E0FEF735FE431B3B
:10214000022B56D823689A00F7D4A36A326823F08A
:102150007C7343EA0253A362D6E90232013B013A9F
:102160005B0212049BB202F4FE0213437268013A4E
:10217000C2F3080213433269013A120602F0FE422A
:1021800013432364E36A726923F440631343E362F5
:10219000E26AB36922F400721A431B4BE262E26AFC
:1021A00022F48072E262616CF2690B4043EAC2037E
:1021B0006364E36A43F48073E362E36AEFB1012F7F
:1021C0000CBF43F4000343F08073E3620D4C2368BB
:1021D00043F080532360FEF7E7FD054604E0FEF779
:1021E000E3FD401B022804D823689B00F7D500209C
:1021F000F8BD0320F8BD0120F8BD43F48003E3627D
:10220000E4E700BF004402580700FFFF2DE9F84350
:102210000368044613F000661CD0026EB2F5001F7E
:1022200000F0958423D8002A00F0A883B2F5801F1F
:1022300020D102210430FFF7F5FE0646002E40F0C3
:102240009884226E236899480026016D21F440117C
:102250000A430265D80511D5626D042A00F2D884BC
:10226000DFE812F0510458044904BF02BF02B2F57E
:10227000401FE8D0D8054FF00106EDD4354659058A
:102280001FD5D4F8A020B2F5800F00F0698400F2C9
:10229000CB80002A00F06C83B2F5001F40F0CE80A6
:1022A0000021201DFFF7BEFE23680546002D40F0EB
:1022B00041837E49D4F8A0008A6D22F46002024373
:1022C0008A651A051FD5D4F8A420B2F1007F00F06A
:1022D000358400F2B680002A00F03E83B2F1807FA0
:1022E00040F0B9800021201DFFF79CFE23680546C1
:1022F000002D40F019836D49D4F8A4008A6D22F0B6
:10230000E06202438A659F0118D5A26C202A00F082
:102310009B8300F2A3803AB1102A40F0A280634967
:10232000CA6A42F40032CA62002D40F052835F490B
:10233000A06CCA6C22F030020243CA64D8041DD5D6
:10234000A26DB2F5005F00F0EC8300F28D80002AF0
:1023500000F00883B2F5805F40F08E800021201DE0
:10236000FFF760FE23680546002D40F0E1824F49EB
:10237000A06D0A6D22F4E04202430A65990419D562
:10238000E26DB2F5003F00F0928378D842B1B2F529
:10239000803F7CD10121201DFFF744FE23680546C4
:1023A000002D40F0F1824149E06D0A6D22F4E022F7
:1023B00002430A655A041BD5D4F8A820B2F1005F85
:1023C00000F06A8366D842B1B2F1805F6AD1012120
:1023D000201DFFF727FE23680546002D40F0D6821A
:1023E0003249D4F8A8008A6D22F0E04202438A659F
:1023F0001F040DD5A26EB2F1805F00F01483B2F11C
:10240000005F00F02082002A00F02382012635467A
:10241000D80157D5626C032A00F2F783DFE812F087
:102420004E000B0348004E0022F40011B1F5000FDE
:102430003FF43CAFB2F5C00F3FF438AF012635464C
:102440003FE722F08071B1F1806F3FF451AFB2F1FC
:10245000407F3FF44DAF0126354654E7302A3FF424
:1024600063AF0126354669E7B2F5405F3FF47CAFC4
:10247000B2F5804F3FF478AF012635467EE722F46F
:102480008031B1F5802F8BD0B2F5403F88D0012646
:1024900035468FE722F08051B1F1804F9DD0B2F1E7
:1024A000405F9AD001263546A2E700BF004402589B
:1024B0000221201DFFF7B6FD23680546002D00F020
:1024C0006B822E46590200F1E381DF072FD5626F40
:1024D000282A2AD8DFE812F0D10129002900290092
:1024E0002900290029002900640329002900290066
:1024F0002900290029002900CA01290029002900F2
:102500002900290029002900D101290029002900DA
:102510002900290029002900D101290029002900CA
:102520002900290029002900D101012635469807F4
:1025300016D5226F052A00F26583DFE812F00D0040
:10254000270306000D000D000D00012104F12400F9
:10255000FFF7E2FD23680546002D00F029822E4694
:10256000590717D5D4F88C20052A00F24883DFE8F4
:1025700012F00D00030306000D000D000D000121F7
:1025800004F12400FFF7C8FD23680546002D00F084
:1025900017822E469A061DD5D4F88820B2F1005F26
:1025A00000F05B8200F2DB804AB1B2F1805F40F064
:1025B000E0800021201DFFF735FD23680546002D32
:1025C00040F00982A849D4F888004A6D22F0E04220
:1025D00002434A655F061DD5D4F89420B2F5006F1A
:1025E00000F0458200F2C8804AB1B2F5806F40F039
:1025F000CD800021201DFFF715FD23680546002D25
:1026000040F0C6819849D4F894008A6D22F4E052D3
:1026100002438A6518061DD5D4F89820B2F5804F7C
:1026200000F02F8200F2B5804AB1B2F5005F40F0B1
:10263000BA800021201DFFF7F5FC23680546002D18
:1026400040F0A8818849D4F898008A6D22F460424D
:1026500002438A6519070AD5E16FB1F5805F00F082
:102660003E828148426D22F440520A434265DA06B6
:102670000BD5D4F89010B1F5807F00F023827A4812
:10268000826D22F440720A4382651F030ED5D4F88E
:102690009C10B1F5803F00F0C380B1F5003F00F021
:1026A000C680002900F0AF810126354658030FD5BA
:1026B000D4F88020B2F5001F00F09F80B2F5401FD3
:1026C00000F0A280B2F5801F00F0A58101263546FA
:1026D000D90309D5E26C002A00F08381B2F5803F6E
:1026E00000F02A81012635469A0000F112819F03ED
:1026F0005CD4301E18BF0120DD0206D55A49E56EB4
:102700000A6D22F000422A430A65990206D556490D
:10271000656E0A6D22F080722A430A655A0009D557
:10272000514A116921F4004111611169D4F8B05086
:1027300029431161002B06DA4B49256DCA6C22F042
:1027400040522A43CA641B0207D5474AD4F8841072
:10275000536D23F440030B435365BDE8F88322F027
:102760008051B1F1804F3FF42AAFB2F1405F3FF4A6
:1027700026AF012635462DE722F48061B1F5805F52
:102780003FF43DAFB2F5406F3FF439AF0126354617
:1027900040E722F40051B1F5004F3FF450AFB2F5DD
:1027A000C04F3FF44CAF0126354653E7A26FB2F558
:1027B000807F00F01F8106D922F48071B1F5007F7F
:1027C00003D0012098E7002AFBD1002DF9D1264D36
:1027D000301E696D18BF012021F440710A436A65FB
:1027E0008AE73546002D40F0A1801F49606D0A6DD3
:1027F00022F0070202430A6541E5012104F12400A9
:10280000FFF78AFC23680546002D40F0CF8016496B
:10281000D4F880004A6D22F4401202434A6557E71B
:10282000022104F12400FFF777FC23680546002D00
:1028300040F0BA800C49D4F89C008A6D22F44032F2
:1028400002438A6532E70121201DFFF7EBFB236875
:102850000546002D40F0C3800349A06E0A6D22F0AA
:10286000405202430A65D3E500440258012104F1B5
:102870002400FFF751FC23680546002D40F0AD8091
:10288000AC49606F4A6D22F0380202434A654EE659
:10289000A94F3B6843F480733B60FEF785FA80469E
:1028A00006E0FEF781FAA0EB0800642800F28281BE
:1028B0003B68DA05F5D5002D40F09E819D4AD4F89D
:1028C000AC30116F594011F4407F0BD0116F106F75
:1028D00021F4407140F480301067106F20F4803094
:1028E00010671167B3F5807F00F0688103F44072D0
:1028F000B2F5407F00F076818E490A6922F47C525D
:102900000A618C4AC3F30B03116F0B4313672368EF
:10291000DBE5022104F12400FFF7FEFB2368002819
:102920003FF4E5AE0126E2E62E46ECE42E46A6E4B0
:102930002E4623E52E46C4E40221201DFFF772FB3C
:1029400005462368002D53D17A49E06CCA6C22F405
:1029500080320243CA64C7E67649CA6A42F400324A
:10296000CA62C5E47349CA6A42F40032CA62FBE42F
:102970007049CA6A42F40032CA6297E46D48C16A7B
:1029800041F40031C1625EE42E4613E52E462FE588
:102990002E463FE62E465DE66649606CCA6C22F024
:1029A00003020243CA648DE52E467FE62E468FE67B
:1029B0006049206F4A6D22F0070202434A65CFE565
:1029C0005C49D4F88C008A6D22F0070202438A65C4
:1029D000E0E52E46B2E42E46FCE52E46A7E52E465F
:1029E00016E55449CA6A42F40032CA62002DABD0DF
:1029F0002E4679E64F48C16A41F40031C162002D8C
:102A00007FF4DFAEE3E6201DFFF70CFB05462368ED
:102A1000002DC9D10EE74749CA6A42F40032CA62A2
:102A2000002DC3D1F3E64349CA6A42F40032CA62B8
:102A3000002DD4D110E73F49CA6A42F40032CA627D
:102A4000002D7FF43EADA7E70221201DFFF7EAFA33
:102A500005462368002DBCD169E4022104F124005D
:102A6000FFF75AFB05462368002DB4D1AAE50221E1
:102A700004F12400FFF750FB05462368002D87D1A1
:102A8000C0E5022104F12400FFF746FB0546236858
:102A9000002D7FF47FAFD5E5012104F12400FFF77D
:102AA0003BFB05462368002D7FF470AF98E40121BD
:102AB00004F12400FFF730FB05462368002D7FF466
:102AC00063AF70E4022104F12400FFF725FBD4F882
:102AD0009010236800283FF4D2AD0126CFE50221F3
:102AE00004F12400FFF718FBE16F236800283FF48E
:102AF000B8AD0126B5E5002104F12400FFF70CFB79
:102B0000236805466EE60B493546CA6A42F4003230
:102B1000CA6267E60021201DFFF784FA2368054694
:102B200060E6002104F12400FFF7F6FA2368054669
:102B30001AE400BF0044025800480258002104F182
:102B40002400FFF7E9FA23680546FFF7D1BB02210D
:102B50002430FFF7E1FA0646002E3FF472AB08E09E
:102B6000002104F12400FFF7D7FA23680546FFF798
:102B70009DBB2368FFF76EBB0121201DFFF752FAB2
:102B800005462368002D7FF404AD19E70121201DBF
:102B9000FFF748FA05462368002D7FF4E0AC07E70D
:102BA0000121201DFFF73EFA05462368002D7FF422
:102BB00014AF65E603262368354686E4FEF7F4F88D
:102BC000DFF85480074641F2883904E0FEF7ECF85C
:102BD000C01B4845EED8D8F870309B07F6D5D4F81E
:102BE000AC3083E60C480D4A016902EA131221F465
:102BF0007C510A43026184E623682E4665E401267F
:102C00003546C7E401263546AAE40126354659E48F
:102C10000126FFF733BB00BF00440258CFFFFF007F
:102C200008B5FFF703F9054B054A1B6AC3F3021306
:102C3000D35C03F01F03D84008BD00BF0044025816
:102C4000145B0008584B70B4996A9D6ADE6A15F4EB
:102C50007C3FC5F30532DC6B5CD0C4F3CC04C6F317
:102C6000001601F0030106FB04F4012907EE904A67
:102C7000B8EEE77A03D0022975D000294FD007EECD
:102C8000902ADFED4A6AF8EEE77A9B6B86EEA76A38
:102C90009FED475AC3F3080306EE903AF7EE005A49
:102CA000F8EEE66AE7EE056A76EEA56A66EE266A53
:102CB0003D4AB7EE006A936BC3F3462307EE103A22
:102CC000B8EEC77A70BC37EE067AC6EE877AFCEEAD
:102CD000E77AC0ED007A936BC3F3064307EE103A30
:102CE000B8EEC77A37EE067AC6EE877AFCEEE77A58
:102CF000C0ED017A936BC3F3066307EE903AF8EEEA
:102D0000E77A77EE867A86EEA77ABCEEC77A80ED10
:102D1000027A704770BCC0E900228260704719686F
:102D2000890627D51C6807EE902A2249F7EE005A3B
:102D30009B6BC4F3C102F8EEE77A9FED1D5AC3F313
:102D40000803D14006EE903A06EE101AF8EEE66A55
:102D5000B8EEC66AE7EE056A86EE277A76EEA56AD1
:102D600066EE876AA4E707EE902ADFED136AF8EEB5
:102D7000E77A8AE707EE902A9FED105A9B6BB7EE31
:102D8000006AF8EEE77ADFED0A5AC3F30803C5EEEE
:102D9000276A07EE903AF8EEE77AE7EE257A77EEC3
:102DA000867A66EEA76A83E7004402580024744AD4
:102DB000000000390090D0030024F44A0024744C31
:102DC000584B70B4996A9D6ADE6A15F07C7FC5F332
:102DD00005525C6C5CD0C4F3CC04C6F3002601F051
:102DE000030106FB04F4012907EE904AB8EEE77AE6
:102DF00003D0022975D000294FD007EE902ADFEDCD
:102E00004A6AF8EEE77A1B6C86EEA76A9FED475A8E
:102E1000C3F3080306EE903AF7EE005AF8EEE66ABE
:102E2000E7EE056A76EEA56A66EE266A3D4AB7EEDB
:102E3000006A136CC3F3462307EE103AB8EEC77A64
:102E400070BC37EE067AC6EE877AFCEEE77AC0ED04
:102E5000007A136CC3F3064307EE103AB8EEC77A54
:102E600037EE067AC6EE877AFCEEE77AC0ED017A95
:102E7000136CC3F3066307EE903AF8EEE77A77EE49
:102E8000867A86EEA77ABCEEC77A80ED027A704722
:102E900070BCC0E90022826070471968890627D596
:102EA0001C6807EE902A2249F7EE005A1B6CC4F307
:102EB000C102F8EEE77A9FED1D5AC3F30803D14033
:102EC00006EE903A06EE101AF8EEE66AB8EEC66A1A
:102ED000E7EE056A86EE277A76EEA56A66EE876AE1
:102EE000A4E707EE902ADFED136AF8EEE77A8AE7A7
:102EF00007EE902A9FED105A1B6CB7EE006AF8EEB1
:102F0000E77ADFED0A5AC3F30803C5EE276A07EE36
:102F1000903AF8EEE77AE7EE257A77EE867A66EE73
:102F2000A76A83E7004402580024744A000000396D
:102F30000090D0030024F44A0024744C704700BF72
:102F4000002800F0AE8038B590F83D30044603F01C
:102F5000FF02002B7FD0226802235349B2F1804F39
:102F600084F83D30A2EB01011368B1FA81F14FEA18
:102F700051114BD0002949D14C484D4D82426FD060
:102F800000F5806082426BD0551B00F58060B5FA79
:102F900085F582424FEA55156BD0002D69D1454920
:102FA0008A4270D001F580618A426CD04248A1F516
:102FB000C8418A4218BF824265D001F580618A42C9
:102FC00061D0A06923F08003E16803431360636864
:102FD000D162936201230020536184F8483084F861
:102FE0003E3084F83F3084F8403084F8413084F833
:102FF000423084F8433084F8443084F8453084F813
:10300000463084F8473084F83D3038BD284D23F0F1
:103010007003A068551B0343B5FA85F56D09206957
:1030200023F440730343A06923F080030343136038
:10303000E368D3626368936251B94DB91D491F4B70
:103040009A4218BF8A4203D003F580639A42C1D1E5
:1030500063691363BEE780F83C20FFF76FFF7AE7F0
:10306000551B23F07003A068B5FA85F503436D097D
:10307000D5E7A06823F07003034311488242CED005
:10308000002DCCD18BE7206923F44073A169034361
:10309000E06823F080030B4361681360D0629162A3
:1030A000CCE70120704700BF000001400004004051
:1030B000000401400040014000480140004401403C
:1030C000000C004090F83D30012B4DD102680221E8
:1030D0002A4BB2F1804F18BF9A4230B40CBF012383
:1030E0000023274D274CAA4208BF43F0010380F874
:1030F0003D102548A24208BF43F0010304F5806457
:10310000D168A24208BF43F0010304F5406441F0D6
:103110000101824208BF43F0010300F57050D16005
:10312000A24208BF43F001031849824208BF43F09E
:1031300001038A4208BF43F0010333B9A0F5B84048
:10314000101AB0FA80F0400998B19168104B0B400A
:10315000062B0BD0B3F5803F08D01368002043F056
:103160000103136030BC704701207047002030BC61
:103170007047136843F001031360F3E70000014058
:1031800000040040000800400004014000E000404E
:1031900007000100704700BF704700BF704700BFC5
:1031A000704700BF03681A69910710B5044602D53D
:1031B000DA68920768D41A69520702D5DA685007AC
:1031C0004FD41A69110702D5DA68120737D41A6981
:1031D000D00602D5DA68D1061ED41A69D20702D504
:1031E000DA68D00769D41A69110602D5DA681206BE
:1031F0006BD41A69D00502D5DA6811066DD41A6944
:10320000520602D5DA6850066FD41A69910602D5C3
:10321000DA68920649D410BD6FF0100108222046EA
:1032200019612277DB6913F4407F6FD1FFF7B2FF9A
:103230002046FFF7B3FF002223682277CDE76FF027
:1032400008010422204619612277DB699B075AD1C5
:10325000FFF7A0FF2046FFF7A1FF00222368227797
:10326000B5E76FF0040102222046196122779B69BD
:1032700013F4407F44D1FFF78DFF2046FFF78EFF08
:103280000022236822779CE76FF002010122196176
:1032900002779B69990730D1FFF77CFF2046FFF743
:1032A0007DFF00222368227785E76FF02002204609
:1032B0001A61BDE8104000F02DB86FF00102204601
:1032C0001A61FDF761FB23688DE76FF080022046ED
:1032D0001A6100F021F823688BE76FF480722046B2
:1032E0001A6100F01BF8236889E76FF0400220465E
:1032F0001A61FFF755FF236887E7FFF74DFFD0E717
:10330000FFF74AFFBCE7FFF747FFA6E7FFF744FFD9
:1033100091E700BF704700BF704700BF704700BF14
:103320000169826803680A43AE4930B545690446BD
:10333000C06987B02A431D6802432940AA4D0A4349
:10334000E168AB421A605A6822F4405242EA010234
:10335000A1695A607DD0226A9D681143A34A2A4020
:10336000656A11439960DA6A22F00F022A43DA6231
:103370009F4A93422AD09F4A93425BD09E4A9342EF
:1033800000F0AD819D4A934200F0D2819C4A934265
:1033900000F00C819B4A934200F0D4819A4A9342F8
:1033A00000F02582994A934200F0D881984A9342CE
:1033B00000F02982974A934242D1974B5B6D03F00C
:1033C0003803282B3CD8954AD35C07E0924B5B6DC1
:1033D00003F03803282B33D8914AD35CB0F5004F63
:1033E00000F09A80202B00F23381202B28D8DFE8D0
:1033F00013F02C01290127002700210127002700B5
:103400002700F200270027002700270027002700B9
:103410002700E700270027002700270027002700B4
:103420002700270027002700270027002700270064
:103430002700BF01784B5B6D03F00703052B65D9AF
:10344000012000234FF001122367A266636707B0D3
:1034500030BD9868654A02406F480A439A60DA6A4C
:10346000616A22F00F020A43DA62836D03F00703F8
:10347000052BE5D86B4AD35C202B00F20381012B8E
:10348000DED9023B1E2BDBD801A252F823F000BF8D
:103490007537000841340008A1370008413400089E
:1034A00041340008413400089737000841340008CF
:1034B0004134000841340008413400084134000818
:1034C00041340008413400088337000841340008C3
:1034D00041340008413400084134000841340008F8
:1034E00041340008413400084134000841340008E8
:1034F00041340008413400084134000841340008D8
:103500004134000841340008AB370008464AB0F5A2
:10351000004FD35C7FF466AF202B00F2EA80202BB3
:103520008ED801A252F823F0BD370008AF3700084B
:103530004134000841340008E137000841340008F4
:103540004134000841340008D737000841340008EE
:103550004134000841340008413400084134000877
:103560004134000841340008C337000841340008E2
:103570004134000841340008413400084134000857
:103580004134000841340008413400084134000847
:103590004134000841340008413400084134000837
:1035A0004134000841340008EB3700081A4B5B6DCA
:1035B00003F00703052B3FF643AF1C4AD35C0DE72E
:1035C000154B1A68920640F1C7801B681848C3F370
:1035D000C103D84041E003A8FFF7F2FB049878BB91
:1035E00000202EE7F369FFCF000C0058FFF4FF1115
:1035F000001001400044004000480040004C0040E2
:10360000005000400014014000780040007C004061
:1036100000180140001C014000440258245B0008CF
:10362000245B0008585B0008505B0008505B0008F2
:103630000090D0036846FFF705FB01980028CFD023
:10364000656A0AE0FEF77AFCC9E7FEF72FFCC6E7D9
:10365000402B7FF4F5AE4FF40040714B4FF6EF7105
:10366000626833F81530B0FBF3F303EB5203B3FB9E
:10367000F2F3A3F110028A423FF6E2AE2268002084
:10368000D360DEE6402B7FF4DBAE4FF40040644BAA
:10369000656833F8112005EB4501B0FBF2F3994260
:1036A0003FF6CEAEB3EB053F3FF6CAAE0023194658
:1036B000FCF72EFE2A460902030241EA106168085F
:1036C00018184FF0000341F10001FCF721FE554AA4
:1036D000A0F54071034691423FF6B2AECEE7524BA1
:1036E0005B6D03F00703052B3FF6AAAE4F4AD35C90
:1036F00074E6402B7FF4A4AE494B626833F8151092
:103700005308B0FBF1F003EB40004FF6EF73B0FB52
:10371000F2F0A0F110029A423FF692AE20F00F03B1
:10372000C0F3420022689BB203430020D36088E6C6
:103730003D4B5B6D03F00703052B3FF681AE3C4A22
:10374000D35C4BE6384B5B6D03F03803282B3FF618
:1037500077AE384AD35C41E637487EE7324B5B6D43
:1037600003F00703052B3FF66BAE344AD35C35E616
:10377000334872E7FFF754FA00283FF431AF616A2B
:1037800085E7294B1A6890063BD51B682A48C3F386
:10379000C103D8407BE703A8FFF712FB0498EBE7CF
:1037A0006846FFF74FFA0198E6E725486FE7FEF70E
:1037B000C5FB00283FF414AF656A9DE7FEF776FB72
:1037C000F7E7194B1A68910627D51B681A48C3F307
:1037D000C103D84090E703A8FFF7F2FA0498E8E79E
:1037E0006846FFF72FFA0198E3E7154884E70E4B88
:1037F0005B6D03F00703052B3FF622AE114AD35C45
:10380000ECE50D4843E7084B5B6D03F03803282BCC
:103810003FF616AE0C4AD35CE0E507486CE700BF04
:10382000605B0008FFFC0F0000440258505B00087A
:10383000505B0008245B00080090D003505B000838
:1038400000093D00505B0008245B0008836ADA072A
:1038500010B406D50168C46A4A6822F400322243D3
:103860004A609C0706D50168046B4A6822F48032DE
:1038700022434A60590706D50168446B4A6822F41E
:10388000802222434A601A0706D50168846B4A6881
:1038900022F4004222434A60DC0606D50168C46B6C
:1038A0008A6822F4805222438A60990606D501680C
:1038B000046C8A6822F4005222438A605A060AD5B0
:1038C0000168446C4A68B4F5801F22F4801242EA11
:1038D00004024A600BD01B0606D50268C16C53680F
:1038E00023F400230B4353605DF8044B70474A6890
:1038F000846C22F4C00222434A60ECE72DE9F843CD
:10390000DDF8208007460E46154699460468B8F152
:10391000FF3F0AD1E36936EA03030CBF012300230A
:103920009D42F7D00020BDE8F883E36936EA03033F
:103930000CBF01230023AB42F4D1FDF735FAA0EB15
:103940000900404533D8B8F1000F30D03C682368F7
:1039500022465907DBD5E3691B05D8D54FF4006330
:10396000236254E8003F23F4D07344E8003139B1B6
:1039700052E8003F23F4D07342E800310029F7D128
:1039800002F1080353E8003F23F0010302F10800AD
:1039900040E800310029F3D12023032087F880106C
:1039A000C7F88430C7F88830C7F88C30BBE73A686E
:1039B00052E8003F23F4D07342E800310029F7D1E8
:1039C00002F1080353E8003F23F0010302F108006D
:1039D00040E800310029F3D12023032087F880102C
:1039E000C7F88430C7F888309DE700BF002866D04C
:1039F000D0F8843070B5044682B0002B4CD02268D9
:103A000024232046C4F88430136823F00103136094
:103A1000FFF786FC01283CD0A36A002B35D1236830
:103A20000025596821F490415960996821F02A01D4
:103A30009960196841F001011960C4F88C50FDF7D4
:103A4000B3F9236806461A6812070ED41B685B0791
:103A500027D4002320221846C4F8842084F880301C
:103A6000C4F88820E36602B070BD6FF07E41034663
:103A70002A46204600914FF40011FFF73FFFE0B9BE
:103A800023681B685B070CD4E3E72046FFF7DEFEE4
:103A9000C5E7012002B070BD80F88030FDF73CF82A
:103AA000ADE76FF07E40334600224FF48001009076
:103AB0002046FFF723FF0028CBD00320D3E70120C7
:103AC000704700BF90F88020012A17D00268034693
:103AD0002420002130B4C3F8840020251068146825
:103AE00020F0005024F0010414605966106008466C
:103AF000C3F8845083F8801030BC704702207047B0
:103B000090F88020012A37D002680346242030B57F
:103B1000C3F884001468106820F0010010609068F9
:103B200020F060400143586E916010B39168906836
:103B3000C1F3426C11494FEA507E114D11F80E004D
:103B400011F80C1015F80EE0000115F80C500901E1
:103B5000B0FBFEF0B1FBF5F1A3F8681020250021C1
:103B6000A3F86A0014600846C3F8845083F88010F4
:103B700030BD01210846EFE702207047805B000856
:103B8000785B000890F88020012A37D0026803464D
:103B9000242030B5C3F884001468106820F00100B8
:103BA0001060906820F060600143586E916010B31F
:103BB00091689068C1F3426C11494FEA507E114DF3
:103BC00011F80E0011F80C1015F80EE0000115F8B0
:103BD0000C500901B0FBFEF0B1FBF5F1A3F8681041
:103BE00020250021A3F86A0014600846C3F8845019
:103BF00083F8801030BD01210846EFE702207047AE
:103C0000805B0008785B000808B54FF0E0231B6973
:103C100001F0ACFC012800D108BDBDE8084000F06F
:103C2000C1B900BFEFF305832BB9064B186828B95B
:103C300001221A6070476FF0050070474FF0FF30A7
:103C4000704700BF2405002010B5EFF3058474B958
:103C5000084B1A68012A07D107490222CC771A605B
:103C600001F050FA204610BD4FF0FF3010BD6FF04C
:103C7000050010BD2405002000ED00E0F0B5002592
:103C800087B014460595EFF305824ABB40B3E4B113
:103C9000A6694EBB18266368DB0721D463693BB372
:103CA0004FEA930CA56827683DB3E2685B2A17D9F1
:103CB0002469ABB1A4B10B46624639460096CDE902
:103CC000014501F05DF905460BE0802218260B4600
:103CD000214605AC0096019401F08CF901280AD028
:103CE0000025284607B0F0BD721E372AD3D9F8E761
:103CF0004FF0800CD6E7059DF3E7E368002BF0D189
:103D00002369002BEDD11FFA8CF23C46DFE700BFA0
:103D100010B5EFF305842CB900B910BD01F09CF982
:103D2000204610BD6FF0050010BD00BF044B10B45D
:103D300003608023034C0C605DF8044B13607047F4
:103D4000C8040020C8020020054B10B403604FF4E3
:103D50008073044C0C605DF8044B1360704700BF27
:103D6000280900202805002000F108034FF0FF314A
:103D70000022816002604360C0E90333704700BFE6
:103D800000230361704700BF4368026810B49C6859
:103D900001324B608C609C68616099605DF8044BF7
:103DA00008610260704700BF30B40D686B1C10D012
:103DB00000F108031C465B681A68AA42FAD9026837
:103DC0004B60013299608C6061600861026030BCB8
:103DD000704704696368F2E7036910B45C68D0E96E
:103DE000011284425DF8044B8A6051604FF000017B
:103DF00008BF5A601A680161013A1A601868704772
:103E000008480068006880F308884FF0000080F3DD
:103E1000148862B661B6BFF34F8FBFF36F8F00DFB8
:103E200000BF000008ED00E0DFF80C00016841F47D
:103E3000700101607047000088ED00E00E4B82B019
:103E400000221B680192013308D04FF0500383F326
:103E50001188BFF36F8FBFF34F8FFEE74FF0500312
:103E600083F31188BFF36F8FBFF34F8F019B002B3C
:103E7000FCD002B0704700BF10000020034621F0C4
:103E80000101094810B44FF0807443F80C0C43F85A
:103E9000202CA3F1440043E902146FF002015DF805
:103EA000044B43F8241C70473D3E0008000000000E
:103EB000074B19680868B0E8F04F80F30988BFF332
:103EC0006F8F4FF0000080F311887047AFF30080D0
:103ED000D84500204FF0500383F31188BFF36F8F54
:103EE000BFF34F8F0B4A13680133012B136000D0CF
:103EF00070474FF0E023D3F8043DDBB2002BF7D03E
:103F00004FF0500383F31188BFF36F8FBFF34F8FD0
:103F1000FEE700BF10000020084A136843B94FF0C5
:103F2000500383F31188BFF36F8FBFF34F8FFEE70A
:103F3000013B13600BB983F3118870471000002018
:103F4000EFF30980BFF36F8F154B1A681EF0100F47
:103F500008BF20ED108A20E9F04F10602DE909001C
:103F60004FF0500080F31188BFF34F8FBFF36F8F76
:103F700001F086F94FF0000080F3118809BC196840
:103F80000868B0E8F04F1EF0100F08BFB0EC108AC0
:103F900080F30988BFF36F8F704700BFAFF30080D5
:103FA000D845002008B54FF0500383F31188BFF3C4
:103FB0006F8FBFF34F8F01F053F928B14FF0E0231B
:103FC0004FF08052C3F8042D002383F3118808BDFD
:103FD0004FF0E0220021064B116106489161072154
:103FE0001B68A0FB03039B09013B536111617047F0
:103FF00000000020D34D62104FF0E023484AD3F870
:10400000001D914241D0D3F8002D464B9A4233D047
:10401000454B4FF0FF0C4548454970B51A7884B0C0
:10402000D2B20292072283F800C01B780260DBB292
:104030008DF807309DF807309DF8072003F05003F6
:1040400012060B700FD506229DF807301146013A73
:104050005B00DBB28DF807309DF807301B06F3D408
:1040600003291BD001604FF0500383F31188BFF385
:104070006F8FBFF34F8FFEE74FF0500383F311882C
:10408000BFF36F8FBFF34F8FFEE74FF0500383F303
:104090001188BFF36F8FBFF34F8FFEE7029B4FF086
:1040A000E0244FF44071204ADBB2224E016000252B
:1040B0001370D4F8203D43F47003C4F8203DD4F8C5
:1040C000203D43F07043C4F8203DFFF781FF356089
:1040D000FFF7AAFED4F8343F43F04043C4F8343F1E
:1040E000FFF78EFE01F0CCF833680395013308D05A
:1040F0004FF0500383F31188BFF36F8FBFF34F8FDF
:10410000FEE74FF0500383F31188BFF36F8FBFF3C7
:104110004F8F039B002BFCD0002004B070BD00BF6C
:1041200071C20F4170C20F4100E400E08809002015
:10413000840900201000002038B54307044602D04F
:1041400020F00704083401F06DF80E4A13689BB1A3
:104150000D4A43F6F73115682C448C4207D8A54226
:1041600005D21D44146001F065F8284638BD0025CD
:1041700001F060F8284638BD044B23F007031360B4
:10418000E6E700BF8C090020904500209809002038
:1041900040B14FF0500383F31188BFF36F8FBFF32B
:1041A0004F8FFEE7704700BF70B51546026C04469E
:1041B000866B2AB9056865B301361046A66370BDE3
:1041C0007DB9406801F06CFC6368226C1344A268FE
:1041D0009342636019D32268013628466260A66361
:1041E00070BDC06801F05CFC226CE36851429B1A10
:1041F00022689342E36002D2A3680B44E360022D7D
:104200000DD001360020A66370BD01362846A66396
:1042100070BD8068013601F0B9F9A560CEE7012EC6
:104220004FF0000038BF0126C8E700BF30B583B0AB
:104230009DF8184040B94FF0500383F31188BFF345
:104240006F8FBFF34F8FFEE71D4653B10AB389B995
:104250004FF0500383F31188BFF36F8FBFF34F8F7D
:10426000FEE74FF0500383F31188BFF36F8FBFF366
:104270004F8FFEE76AB150230193019B502B13D05F
:104280004FF0500383F31188BFF36F8FBFF34F8F4D
:10429000FEE70029EFD04FF0500383F31188BFF3FE
:1042A0006F8FBFF34F8FFEE7002908BF2A46E863F0
:1042B00029642A60019A012285F84620FFF70AFE48
:1042C000296800236960AB63D5E90F2000FB02F287
:1042D000101A0A440144AA60FF2205F11000E960A7
:1042E00085F8442085F84520FFF73EFD05F12400C0
:1042F000FFF73AFDFFF710FE284685F84C4003B063
:1043000030BD00BF2DE9F04784B00192002800F0D5
:104310000381884604461F46002900F09780022F3B
:104320000BD1E36B012B08D04FF0500383F31188BE
:10433000BFF36F8FBFF34F8FFEE701F017F900282F
:1043400000F0F380A7F10209002504F12406B9FA70
:1043500089F94FEA5919FFF7BDFDA26BE36B9A4249
:10436000C0F0F080B9F1000F40F0EC80019B002B11
:1043700000F00181002D00F0CB80FFF7CDFD00F0B3
:1043800051FFFFF7A7FD94F84430FF2B02D1002323
:1043900084F8443094F84530FF2B02D1002384F890
:1043A0004530FFF7B9FD01A902A801F091F80028F6
:1043B00040F0E580FFF78EFDA26BE36B9A4252D08E
:1043C000FFF7AAFDFFF786FD94F8452055B2002DB2
:1043D00004DC11E06A1ED3B255B26BB1636A304699
:1043E00053B101F01FF80028F4D001F0B9F86A1EAB
:1043F000D3B255B2002BF1D1FF2384F84530FFF73B
:104400008BFDFFF767FD94F8442055B2002D14DDB5
:1044100004F1100A03E06A1ED3B255B26BB12369EE
:10442000504653B100F0FEFF0028F4D001F098F898
:104430006A1ED3B255B2002BF1D1FF2384F8443069
:10444000FFF76AFD00F0F6FE012584E7036C002B00
:104450003FF465AF4FF0500383F31188BFF36F8FC4
:10446000BFF34F8FFEE704F1100AFFF755FD0199E6
:10447000504600F049FFFFF72DFD94F845305DB23E
:10448000002D04DC11E06B1EDAB25DB26AB1636A22
:10449000304653B100F0C6FF0028F4D001F060F8B8
:1044A0006B1EDAB25DB2002AF1D1FF2384F84530E9
:1044B000FFF732FDFFF70EFD94F844305DB2002D9A
:1044C00004DC11E06B1EDAB25DB26AB123695046BA
:1044D00053B100F0A7FF0028F4D001F041F86B1EA3
:1044E000DAB25DB2002AF1D1FF2384F84430FFF73D
:1044F00013FD00F09FFE0028A6D14FF0E0234FF0FF
:104500008052C3F8042DBFF34F8FBFF36F8F9BE72B
:1045100002A800F0D1FF30E74FF0500383F3118879
:10452000BFF36F8FBFF34F8FFEE7019B002B3FF46C
:1045300009AF4FF0500383F31188BFF36F8FBFF3C0
:104540004F8FFEE73A4641462046FFF72DFE636A4D
:10455000002B52D148B14FF0E0234FF08052C3F806
:10456000042DBFF34F8FBFF36F8FFFF7D5FC0120F2
:1045700004B0BDE8F087FFF7CFFC4846F8E7FFF747
:10458000A9FC94F845305DB2002D10DD04F124063D
:1045900003E06B1EDAB25DB24AB1636A304633B1F2
:1045A00000F040FF0028F4D000F0DAFFF1E7FF232D
:1045B00084F84530FFF7B0FCFFF78CFC94F84430EA
:1045C0005DB2002D10DD04F1100603E06B1EDAB2BF
:1045D0005DB24AB12369304633B100F023FF0028B1
:1045E000F4D000F0BDFFF1E7FF2384F84430FFF77B
:1045F00093FC00F01FFE0020BAE704F1240000F055
:1046000011FF0028B1D0A6E72DE9F04385B0019253
:10461000002800F05F810F460446002900F09480D6
:1046200000F0A4FF002800F09C80FFF753FCA56B6E
:10463000002D72D1019B002B00F0F180A84604F1FF
:10464000240602A800F038FFFFF766FC00F0EAFD40
:10465000FFF740FC94F84430FF2B01D184F84480EC
:1046600094F84530FF2B01D184F84580FFF754FCC6
:1046700001A902A800F02CFF00287FD1FFF72AFC37
:10468000A36B002B00F0D180FFF746FCFFF722FC64
:1046900094F845305DB2002D04DC11E06B1EDAB2F7
:1046A0005DB26AB1636A304653B100F0BBFE0028C8
:1046B000F4D000F055FF6B1EDAB25DB2002AF1D1E2
:1046C000FF2384F84530FFF727FCFFF703FC94F83D
:1046D00044305DB2002D14DD04F1100903E06B1EBF
:1046E000DAB25DB26AB12369484653B100F09AFE6E
:1046F0000028F4D000F034FF6B1EDAB25DB2002A5D
:10470000F1D1FF2384F84430FFF706FC00F092FD5E
:10471000FFF7E0FBA56B002D7DD0226C52B1E16864
:10472000A36811449942E16001D32168E1603846F1
:1047300001F0B6F9013DA5632369002B40F0D38059
:10474000FFF7EAFB01206DE0036C002B3FF468AF3C
:104750004FF0500383F31188BFF36F8FBFF34F8F78
:10476000FEE7019B002B3FF460AF4FF0500383F353
:104770001188BFF36F8FBFF34F8FFEE7FFF7AAFBE0
:1047800094F845305DB2002D04DC11E06B1EDAB206
:104790005DB26AB1636A304653B100F043FE00284F
:1047A000F4D000F0DDFE6B1EDAB25DB2002AF1D16A
:1047B000FF2384F84530FFF7AFFBFFF78BFB94F83E
:1047C00044305DB2002D14DD04F1100903E06B1ECE
:1047D000DAB25DB26AB12369484653B100F022FEF5
:1047E0000028F4D000F0BCFE6B1EDAB25DB2002AE5
:1047F000F1D1FF2384F84430FFF78EFB00F01AFD5F
:10480000FFF768FBA36B53B1FFF786FBFFF762FB73
:10481000A56B002D81D1019B002B7FF415AFFFF715
:104820007BFB002005B0BDE8F083FFF775FB019925
:10483000304600F069FDFFF74DFB94F845305DB25E
:10484000002D04DC11E06B1EDAB25DB26AB1636A5E
:10485000304653B100F0E6FD0028F4D000F080FEB1
:104860006B1EDAB25DB2002AF1D1FF2384F8453025
:10487000FFF752FBFFF72EFB94F844305DB2002D9A
:1048800014DD04F1100903E06B1EDAB25DB26AB107
:104890002369484653B100F0C5FD0028F4D000F06C
:1048A0005FFE6B1EDAB25DB2002AF1D1FF2384F8FD
:1048B0004430FFF731FB00F0BDFC0028A6D14FF0DB
:1048C000E0234FF08052C3F8042DBFF34F8FBFF3A6
:1048D0006F8F9BE74FF0500383F31188BFF36F8F07
:1048E000BFF34F8FFEE704F1100000F09BFD00289E
:1048F0003FF426AF4FF0E0234FF08052C3F8042D71
:10490000BFF34F8FBFF36F8F1AE700BF124B1A68C8
:104910007AB19A6862B11A6992B19A6992B11A6AC7
:1049200092B19A6A92B11A6B92B19A6B92B1704736
:10493000012203EBC20C43F83210CCF8040070479C
:104940000222F6E70322F4E70422F2E70522F0E769
:104950000622EEE70722ECE79845002070B50546F1
:104960000E461446FFF7B6FA95F84430FF2B02D1F5
:10497000002385F8443095F84530FF2B02D1002301
:1049800085F84530FFF7C8FAAB6B002B43D0FFF733
:10499000A1FA95F845305CB2002C14DD05F124062F
:1049A00003E0631EDAB25CB26AB16B6A304653B19F
:1049B00000F038FD0028F4D000F0D2FD631EDAB21A
:1049C0005CB2002AF1D1FF2385F84530FFF7A4FA45
:1049D000FFF780FA95F844305CB2002C14DD05F145
:1049E000100603E0631EDAB25CB26AB12B6930468E
:1049F00053B100F017FD0028F4D000F0B1FD631EA4
:104A0000DAB25CB2002AF1D1FF2385F84430BDE868
:104A10007040FFF781BA2246314605F1240000F0CC
:104A2000B7FCB4E72DE9F8430546FFF753FA344ADB
:104A3000344E1368013313603368002B32D0324C8C
:104A400023683BB3E86A314F314A32491368013376
:104A500013606B640B68834200D2086000EB800037
:104A6000291D07EB8000FFF78FF9FFF755FA236840
:104A700073B13268EB6AD26A9A4209D24FF0E023EE
:104A80004FF08052C3F8042DBFF34F8FBFF36F8FE9
:104A9000BDE8F8833368E86ADB6A1C4F8342D3D8E9
:104AA0003560D1E735601368012B03D0E86A174FF2
:104AB000154CC9E7154F3C4607F58C682046143461
:104AC000FFF752F9A045F9D1DFF86090DFF8608078
:104AD00048460D4CFFF748F94046FFF745F90E48A8
:104AE000FFF742F90D48FFF73FF90D48FFF73CF992
:104AF0000C4BE86AC3F800900B4BC3F80080A3E7A7
:104B0000444A0020D8450020A04A0020E445002067
:104B1000504A0020544A00208C4A0020B84A002005
:104B2000A44A0020DC450020E0450020584A00202F
:104B30006C4A00202DE9F0470A9C4FEA820906469C
:104B40000D464A46A521206B1F46DDF82480A9F1B9
:104B5000040900F0B3FF236B994429F00709002DE5
:104B60007DD02B7884F834302B78002B4DD06B78A7
:104B700084F835306B78002B47D0AB7884F836302A
:104B8000AB78002B41D0EB7884F83730EB78002BF2
:104B90003BD02B7984F838302B79002B35D06B79CA
:104BA00084F839306B79002B2FD0AB7984F83A3008
:104BB000AB7953B3EB7984F83B30EB792BB32B7A99
:104BC00084F83C302B7A03B36B7A84F83D306B7AEF
:104BD000DBB1AB7A84F83E30AB7AB3B1EB7A84F8D0
:104BE0003F30EB7A8BB12B7B84F840302B7B63B169
:104BF0006B7B84F841306B7B3BB1AB7B84F84230FC
:104C0000AB7B13B1EB7B84F84330002384F8433053
:104C1000089D4FF0000A201D372DC4F850A028BF72
:104C20003725E562E564C5F13805FFF7A9F804F119
:104C30001800FFF7A5F8C4F854A03A463146484694
:104C4000A56184F858A024616462FFF717F9206019
:104C5000B8F1000F01D0C8F80040BDE8F08784F833
:104C60003450D5E780B5214C4FF0E029204E4FF06D
:104C70008058204D204F236853B3FFF72BF9F3687A
:104C8000D3F80CA00AF10400FFF7A6F82B68013B4B
:104C90002B602368013B2360FFF73EF99AF85930F7
:104CA00063B1012B1ED0022BE5D04FF0500383F3EC
:104CB0001188BFF36F8FBFF34F8FFEE7DAF8300034
:104CC000FFF766FA5046FFF763FA2368002BD4D14A
:104CD0003B68012BCFD9C9F8048DBFF34F8FBFF3C9
:104CE0006F8FC8E75046FFF753FAC4E7484A0020E1
:104CF000B84A0020444A0020E44500204A4B2DE9F0
:104D0000F04F1E6883B001361E60002E40D0DFF8E1
:104D10002CB1DBF800309E4247D3444F3B681D68FE
:104D2000002D77D00025DFF81891DFF818A1DFF803
:104D3000188122E00191FFF74FF8A36A04F11800EF
:104D4000019913B1FFF748F80199E36AD8F80020F8
:104D500003EB8300934209EB800001D9C8F80030CF
:104D6000FFF712F8DAF800203B68E16AD26A1B68A4
:104D7000914228BF0125002B50D03B68DB68DC68DE
:104D80006368211D9E420846D4D2CBF8003011E062
:104D9000264B1A6812680AB34FF0500383F3118848
:104DA000BFF36F8FBFF34F8FFEE70025DFF89090C2
:104DB000DFF890A0DAF800301D49DB6A03EB8303CB
:104DC0009B0059F803200B68022A28BF0125002BFD
:104DD0000CBF2846012003B0BDE8F08F154A1868C3
:104DE00011681960144910600A6801320A601A6873
:104DF000126832B9DFF844B04FF0FF33CBF800301F
:104E000087E71B68DFF834B0DB68DB685B68CBF8EA
:104E100000307EE7DFF82890DFF828A04FF0FF335E
:104E2000CBF80030C6E700BFCC4A0020DC450020AC
:104E3000D04A0020E0450020844A0020804A00201B
:104E4000E4450020D8450020544A00202DE9F04FC9
:104E5000414D83B0FFF73EF82B68013B2B602B6878
:104E6000002B61D13D4B1B68002B5DD03C4E33685D
:104E7000002B6ED03B4FDFF8FC90DFF8FC80DFF8B2
:104E8000FCA0F368DC6804F1040B04F11800FEF7E1
:104E9000A3FF5846FEF7A0FFE36A3A68594603EBC2
:104EA0008300934209EB800000D93B60FEF76CFF62
:104EB000D8F80030E26ADB6A9A423DD30123CAF88F
:104EC00000303368002BDCD1274B1A681268002AA7
:104ED0003AD01A68254BD268D26852681A60244EBC
:104EE000346894B1012706E0FFF708FF08B1CAF85B
:104EF0000070013C08D02B68002BF5D03368013CD2
:104F000003F101033360F6D13460DAF800305BB1AD
:104F10004FF0E0234FF08052C3F8042DBFF34F8FC2
:104F2000BFF36F8F012000E000200190FEF7F4FF37
:104F3000019803B0BDE8F08F3368002BA1D10A4B74
:104F40001A681268002AC4D1084B4FF0FF321A6069
:104F5000C5E7DFF828A0C2E74C4A0020444A0020F9
:104F60008C4A0020544A0020DC450020804A002062
:104F7000884A0020E4450020D8450020D04A00207F
:104F800030B587B00B9CC4B10C9D6DB15C25059507
:104F9000059D5C2D1AD04FF0500383F31188BFF3A9
:104FA0006F8FBFF34F8FFEE74FF0500383F31188ED
:104FB000BFF36F8FBFF34F8FFEE74FF0500383F3C4
:104FC0001188BFF36F8FBFF34F8FFEE70C9D2C63EB
:104FD000022402950A9D00950C9D85F8594004AC69
:104FE000059D0194FFF7A6FD0C98FFF71BFD0498A3
:104FF00007B030BD2DE9F043074685B09000154657
:1050000088469946FFF798F8D8B104465C20FFF728
:1050100093F80646D0B1046300244B462A4686F82E
:10502000594041460D9C3846029601940C9C0094D0
:10503000FFF780FD3046FFF7F5FC012005B0BDE825
:10504000F0834FF0FF3005B0BDE8F0832046FFF756
:105050009FF84FF0FF30F1E7F8B550B94FF0E0237B
:105060004FF08052C3F8042DBFF34F8FBFF36F8F03
:10507000F8BD1E4D2B6843B14FF0500383F31188E8
:10508000BFF36F8FBFF34F8FFEE72B6804460133EA
:105090002B60174B174E1F6830680430FEF79CFEDC
:1050A000E41933685C6015D3134B18683168043118
:1050B000FEF77AFE2B6843B94FF0500383F3118853
:1050C000BFF36F8FBFF34F8FFEE7FFF7BFFE0028E0
:1050D000C4D0F8BD094B186831680431FEF764FE8E
:1050E000074B1A689442E5D21C60E3E74C4A002063
:1050F000CC4A0020D8450020E0450020DC450020B7
:10510000804A002070B584B00024684602AA01A934
:10511000CDE90044FEF70AFE0198C8B1009D75B1C3
:105120005C22029E0392039A5C2A1AD04FF050032D
:1051300083F31188BFF36F8FBFF34F8FFEE74FF0FC
:10514000500383F31188BFF36F8FBFF34F8FFEE7D8
:105150004FF0500383F31188BFF36F8FBFF34F8F6E
:10516000FEE7B6000223A5212863324685F85930B0
:10517000039B00F0A3FC2A6B331F2549281DD6187A
:1051800085F83840696385F8434026F00706EC62ED
:10519000C5E91344FEF7F4FD05F11800FEF7F0FD34
:1051A000382322461B496C653046AB612D616D6228
:1051B00085F85840FEF762FE034628462B60FFF74D
:1051C00031FC00F0C1FB01280CD0013001D004B04B
:1051D00070BD4FF0500383F31188BFF36F8FBFF39F
:1051E0004F8FFEE74FF0500383F31188BFF36F8FAB
:1051F000BFF34F8F084B4FF0FF31084A1960084B3F
:1052000010601C6004B0BDE87040FEF7F5BE00BF42
:1052100049444C45654C0008804A0020A04A0020C3
:10522000CC4A0020024A136801331360704700BF64
:105230004C4A0020064B1B6843B94FF0500383F3E0
:105240001188BFF36F8FBFF34F8FFEE7FFF7FEBDEF
:105250004C4A0020014B1868704700BFCC4A002020
:10526000054B1B680BB9FFF749BD044A00201368C2
:1052700001331360704700BF4C4A0020884A002069
:105280001C4B1B681BB11C4B01221A6070471A4A49
:105290001A4910B41A4C1360236803EB8302980078
:1052A00092008A5842B9C3B1013B03EB83029800D4
:1052B00051F82220002AF6D0C21801EB8200416882
:1052C000024649680832914241600FD0C9680D4AD0
:1052D000116023605DF8044B70474FF0500383F377
:1052E0001188BFF36F8FBFF34F8FFEE749684160AE
:1052F000ECE700BF4C4A0020D04A0020E4450020E3
:10530000544A0020D8450020F0B170B51A4D0C4623
:1053100029681831FEF748FD184B1E6828680430CC
:10532000FEF75AFD631C20D0A4192B685C6014D2D0
:10533000134B186829680431FEF736FD114B1A68C3
:10534000944200D21C6070BD4FF0500383F311886B
:10535000BFF36F8FBFF34F8FFEE70B4B18682968C1
:10536000BDE870400431FEF71FBD296807480431CD
:10537000BDE87040FEF708BDD8450020CC4A0020AB
:10538000DC450020804A0020E0450020A44A00209F
:1053900058B370B51D4E0C46154631681831FEF7EE
:1053A000F3FC65B11A4B1B6830680430FEF714FD3E
:1053B000316818480431BDE87040FEF7E5BC144B75
:1053C0001D6830680430FEF707FD641933685C60BF
:1053D00014D2114B186831680431FEF7E5FC0F4B0D
:1053E0001A68944200D21C6070BD4FF0500383F3E2
:1053F0001188BFF36F8FBFF34F8FFEE7084B18681C
:105400003168BDE870400431FEF7CEBCD8450020BD
:10541000CC4A0020A44A0020DC450020804A00201D
:10542000E0450020C36830B5DC6883B05CB304F1AC
:1054300018052846FEF7D0FC194B1B687BB129469E
:105440001848FEF7A1FC184BE26A1B68DB6A9A4217
:1054500022D90123154A1846136003B030BD211D1F
:1054600008460191FEF7B8FC114AE36A10680199F9
:10547000834200D9136003EB83030E4800EB8300E3
:10548000FEF782FCDFE74FF0500383F31188BFF390
:105490006F8FBFF34F8FFEE7002003B030BD00BF1A
:1054A0004C4A00208C4A0020D8450020D04A0020D9
:1054B000544A0020E4450020034A044B12681B684C
:1054C000C0E90023704700BF844A0020CC4A002076
:1054D00028B3F0B50D4683B0C1B10446FEF7FAFC1F
:1054E0002B681D4A581C116830D0DFF870C0266840
:1054F000DCF800706068BE421AD0884218D80120DB
:105500000190FEF709FD019803B0F0BD4FF0500384
:1055100083F31188BFF36F8FBFF34F8FFEE74FF018
:10552000500383F31188BFF36F8FBFF34F8FFEE7F4
:10553000A1EB000E73450BD95B1ADCF80010126862
:10554000034400202B60C4E90012D9E70020D7E70C
:10555000002301202B60D3E7CC4A0020844A00209E
:10556000014B01221A607047D04A0020054B1B688E
:1055700033B1054B1B68002B0CBF02200020704785
:1055800001207047A04A00204C4A002018B31F4B4E
:1055900010B51C6882B0844208D04FF0500383F3EA
:1055A0001188BFF36F8FBFF34F8FFEE7236D4BB1B1
:1055B000E16A013BE26C2365914200D06BB10020AF
:1055C00002B010BD4FF0500383F31188BFF36F8F0B
:1055D000BFF34F8FFEE700207047211D0846019161
:1055E000FEF7FAFBE06C0A4BC0F138020199E06269
:1055F000A2611A68904200D91860064B00EB800047
:1056000003EB8000FEF7C0FB0120D9E7D84500205E
:10561000544A0020E44500202DE9F043224E85B095
:10562000DFF88C904FF000080DE0DB68DC681F6845
:10563000251D2846FEF7D0FB236A2046984794F89C
:1056400028305B070AD433681A68002AEDD1174A5C
:1056500011681360316005B0BDE8F083A369294685
:105660003B449F4205D2306863602461FEF79CFB97
:10567000E9E7D9F800306BB10294CDE90087FFF774
:1056800075FF00236946D9F800001A46FEF73AFE76
:105690000028D8D14FF0500383F31188BFF36F8FE8
:1056A000BFF34F8FFEE700BFD44A0020D84A002046
:1056B000F84B00202DE9F04F9F4E89B09F4D4FF0E1
:1056C000E0299F4C33681F68002F00F0B280DB6830
:1056D0001F68FFF7A7FDFFF7BDFD2A6882469042CD
:1056E000C0F0AF808742286000F2D080FFF7A2FDB3
:1056F0003268D268D2F80CB00BF104084046FEF7CD
:105700006BFB9BF82800410700F1D08020F00100DE
:105710008BF82800DBF8203058469847002269466D
:105720002068FEF771FF0028CCD0009B002B77DBB0
:10573000029F7B6913B1381DFEF74EFBFFF78AFD10
:105740002B6880469842C0F08380009BC5F800809B
:10575000092BE3D8DFE803F0050505543E5B05059A
:10576000543E97F82830BA6943F001033F6187F847
:105770002830019B99182CBF0120002041457960F9
:1057800000F28680A8EB03039A4200F2C0803B6AD5
:105790003846984797F828305B07BFD5236883B110
:1057A0000022BB6906970492019A13440593FFF700
:1057B000DDFE002304A920681A46FEF7A3FD002899
:1057C000ACD14FF0500383F31188BFF36F8FBFF359
:1057D0004F8FFEE797F8283043F0010387F8283011
:1057E000019BBB61002B00F09E804344391D3F614B
:1057F00043457B6056D8534B1868FEF7D5FA8DE7C2
:1058000097F8283023F0010387F8283086E797F8C7
:1058100028309A0772D523F0010387F828307DE7F6
:10582000019BDDE902019847009B002BFFF676AF54
:105830007EE7FFF7F7FCFFF70DFD2A6882468242FC
:1058400009D9FFF7E9FEC5F800A0FFF7F3FC65E70B
:10585000FFF7E2FE79E73B4BC5F800A01A68126833
:10586000B2FA82F25209A7EB0A012068FFF776F834
:10587000FFF7E0FC00287FF451AF4FF08053C9F8E8
:10588000043DBFF34F8FBFF36F8F47E70022EAE776
:10589000434502D900283FF47AAF391D3068FEF73E
:1058A00083FA3BE73068FEF77FFA37E7DBF818202A
:1058B000CBF810B0B8188245CBF8040022D3AAEB7D
:1058C00007039A4229D823687BB100230597CDF8B6
:1058D00018B00493FFF74AFE002304A920681A4673
:1058E000FEF710FD00287FF415AF4FF0500383F34F
:1058F0001188BFF36F8FBFF34F8FFEE73846FEF777
:1059000047FC0BE741463068FEF74EFA02E70D4BC5
:10591000391D1868FEF748FA00E70A4B4146186837
:10592000FEF742FAF6E64FF0500383F31188BFF317
:105930006F8FBFF34F8FFEE7D44A0020A44B0020A7
:10594000F84B0020D84A0020F0B5234C89B0FEF770
:10595000C1FA256835B3FEF7DFFA2368CBB100241E
:1059600007AA06A905A80225CDE90544FEF7ECF92A
:105970002346079A0095DDE90501CDE90110174995
:105980001748FFF7FDFA174B186010B1012009B056
:10599000F0BD4FF0500383F31188BFF36F8FBFF357
:1059A0004F8FFEE7104F114E3846FEF7DDF93046B7
:1059B000FEF7DAF90E4A0095102117600A200D4A09
:1059C0000D4B16600D4AFEF731FC20600028C2D056
:1059D0000B49FEF79BFFBEE7F84B0020905B0008E9
:1059E000B5560008FC4B00207C4B0020904B00205B
:1059F000D44A0020D84A0020A84B0020DC4A0020CE
:105A0000885B0008DFF834D0FBF73CF90C480D49FF
:105A10000D4A002302E0D458C4500433C4188C4209
:105A2000F9D30A4A0A4C002301E013600432A2426F
:105A3000FBD300F011F8FAF755FE70470000022082
:105A40000000002014000020A85B0008D8000020FF
:105A5000004C0020FEE7000070B50D4D0D4C641B9E
:105A6000A4100026A64209D10B4D0C4C00F02EF8D4
:105A7000641BA4100026A64205D170BD55F8043B56
:105A800098470136EEE755F8043B98470136F2E7B0
:105A9000A05B0008A05B0008A05B0008A45B0008F6
:105AA0000A44914200F1FF3300D1704710B511F85C
:105AB000014B03F8014F9142F9D110BD0244034656
:105AC000934200D1704703F8011BF9E7F8B500BF16
:105AD000F8BC08BC9E467047F8B500BFF8BC08BCCF
